{
  "_format": "hh-sol-artifact-1",
  "contractName": "Mailbox",
  "sourceName": "@hyperlane-xyz/core/contracts/Mailbox.sol",
  "abi": [
    {
      "inputs": [
        {
          "internalType": "uint32",
          "name": "_localDomain",
          "type": "uint32"
        }
      ],
      "stateMutability": "nonpayable",
      "type": "constructor"
    },
    {
      "anonymous": false,
      "inputs": [
        {
          "indexed": true,
          "internalType": "address",
          "name": "hook",
          "type": "address"
        }
      ],
      "name": "DefaultHookSet",
      "type": "event"
    },
    {
      "anonymous": false,
      "inputs": [
        {
          "indexed": true,
          "internalType": "address",
          "name": "module",
          "type": "address"
        }
      ],
      "name": "DefaultIsmSet",
      "type": "event"
    },
    {
      "anonymous": false,
      "inputs": [
        {
          "indexed": true,
          "internalType": "address",
          "name": "sender",
          "type": "address"
        },
        {
          "indexed": true,
          "internalType": "uint32",
          "name": "destination",
          "type": "uint32"
        },
        {
          "indexed": true,
          "internalType": "bytes32",
          "name": "recipient",
          "type": "bytes32"
        },
        {
          "indexed": false,
          "internalType": "bytes",
          "name": "message",
          "type": "bytes"
        }
      ],
      "name": "Dispatch",
      "type": "event"
    },
    {
      "anonymous": false,
      "inputs": [
        {
          "indexed": true,
          "internalType": "bytes32",
          "name": "messageId",
          "type": "bytes32"
        }
      ],
      "name": "DispatchId",
      "type": "event"
    },
    {
      "anonymous": false,
      "inputs": [
        {
          "indexed": false,
          "internalType": "uint8",
          "name": "version",
          "type": "uint8"
        }
      ],
      "name": "Initialized",
      "type": "event"
    },
    {
      "anonymous": false,
      "inputs": [
        {
          "indexed": true,
          "internalType": "address",
          "name": "previousOwner",
          "type": "address"
        },
        {
          "indexed": true,
          "internalType": "address",
          "name": "newOwner",
          "type": "address"
        }
      ],
      "name": "OwnershipTransferred",
      "type": "event"
    },
    {
      "anonymous": false,
      "inputs": [
        {
          "indexed": true,
          "internalType": "uint32",
          "name": "origin",
          "type": "uint32"
        },
        {
          "indexed": true,
          "internalType": "bytes32",
          "name": "sender",
          "type": "bytes32"
        },
        {
          "indexed": true,
          "internalType": "address",
          "name": "recipient",
          "type": "address"
        }
      ],
      "name": "Process",
      "type": "event"
    },
    {
      "anonymous": false,
      "inputs": [
        {
          "indexed": true,
          "internalType": "bytes32",
          "name": "messageId",
          "type": "bytes32"
        }
      ],
      "name": "ProcessId",
      "type": "event"
    },
    {
      "anonymous": false,
      "inputs": [
        {
          "indexed": true,
          "internalType": "address",
          "name": "hook",
          "type": "address"
        }
      ],
      "name": "RequiredHookSet",
      "type": "event"
    },
    {
      "inputs": [],
      "name": "PACKAGE_VERSION",
      "outputs": [
        {
          "internalType": "string",
          "name": "",
          "type": "string"
        }
      ],
      "stateMutability": "view",
      "type": "function"
    },
    {
      "inputs": [],
      "name": "VERSION",
      "outputs": [
        {
          "internalType": "uint8",
          "name": "",
          "type": "uint8"
        }
      ],
      "stateMutability": "view",
      "type": "function"
    },
    {
      "inputs": [],
      "name": "defaultHook",
      "outputs": [
        {
          "internalType": "contract IPostDispatchHook",
          "name": "",
          "type": "address"
        }
      ],
      "stateMutability": "view",
      "type": "function"
    },
    {
      "inputs": [],
      "name": "defaultIsm",
      "outputs": [
        {
          "internalType": "contract IInterchainSecurityModule",
          "name": "",
          "type": "address"
        }
      ],
      "stateMutability": "view",
      "type": "function"
    },
    {
      "inputs": [
        {
          "internalType": "bytes32",
          "name": "_id",
          "type": "bytes32"
        }
      ],
      "name": "delivered",
      "outputs": [
        {
          "internalType": "bool",
          "name": "",
          "type": "bool"
        }
      ],
      "stateMutability": "view",
      "type": "function"
    },
    {
      "inputs": [],
      "name": "deployedBlock",
      "outputs": [
        {
          "internalType": "uint256",
          "name": "",
          "type": "uint256"
        }
      ],
      "stateMutability": "view",
      "type": "function"
    },
    {
      "inputs": [
        {
          "internalType": "uint32",
          "name": "destinationDomain",
          "type": "uint32"
        },
        {
          "internalType": "bytes32",
          "name": "recipientAddress",
          "type": "bytes32"
        },
        {
          "internalType": "bytes",
          "name": "messageBody",
          "type": "bytes"
        },
        {
          "internalType": "bytes",
          "name": "metadata",
          "type": "bytes"
        },
        {
          "internalType": "contract IPostDispatchHook",
          "name": "hook",
          "type": "address"
        }
      ],
      "name": "dispatch",
      "outputs": [
        {
          "internalType": "bytes32",
          "name": "",
          "type": "bytes32"
        }
      ],
      "stateMutability": "payable",
      "type": "function"
    },
    {
      "inputs": [
        {
          "internalType": "uint32",
          "name": "destinationDomain",
          "type": "uint32"
        },
        {
          "internalType": "bytes32",
          "name": "recipientAddress",
          "type": "bytes32"
        },
        {
          "internalType": "bytes",
          "name": "messageBody",
          "type": "bytes"
        },
        {
          "internalType": "bytes",
          "name": "hookMetadata",
          "type": "bytes"
        }
      ],
      "name": "dispatch",
      "outputs": [
        {
          "internalType": "bytes32",
          "name": "",
          "type": "bytes32"
        }
      ],
      "stateMutability": "payable",
      "type": "function"
    },
    {
      "inputs": [
        {
          "internalType": "uint32",
          "name": "_destinationDomain",
          "type": "uint32"
        },
        {
          "internalType": "bytes32",
          "name": "_recipientAddress",
          "type": "bytes32"
        },
        {
          "internalType": "bytes",
          "name": "_messageBody",
          "type": "bytes"
        }
      ],
      "name": "dispatch",
      "outputs": [
        {
          "internalType": "bytes32",
          "name": "",
          "type": "bytes32"
        }
      ],
      "stateMutability": "payable",
      "type": "function"
    },
    {
      "inputs": [
        {
          "internalType": "address",
          "name": "_owner",
          "type": "address"
        },
        {
          "internalType": "address",
          "name": "_defaultIsm",
          "type": "address"
        },
        {
          "internalType": "address",
          "name": "_defaultHook",
          "type": "address"
        },
        {
          "internalType": "address",
          "name": "_requiredHook",
          "type": "address"
        }
      ],
      "name": "initialize",
      "outputs": [],
      "stateMutability": "nonpayable",
      "type": "function"
    },
    {
      "inputs": [],
      "name": "latestDispatchedId",
      "outputs": [
        {
          "internalType": "bytes32",
          "name": "",
          "type": "bytes32"
        }
      ],
      "stateMutability": "view",
      "type": "function"
    },
    {
      "inputs": [],
      "name": "localDomain",
      "outputs": [
        {
          "internalType": "uint32",
          "name": "",
          "type": "uint32"
        }
      ],
      "stateMutability": "view",
      "type": "function"
    },
    {
      "inputs": [],
      "name": "nonce",
      "outputs": [
        {
          "internalType": "uint32",
          "name": "",
          "type": "uint32"
        }
      ],
      "stateMutability": "view",
      "type": "function"
    },
    {
      "inputs": [],
      "name": "owner",
      "outputs": [
        {
          "internalType": "address",
          "name": "",
          "type": "address"
        }
      ],
      "stateMutability": "view",
      "type": "function"
    },
    {
      "inputs": [
        {
          "internalType": "bytes",
          "name": "_metadata",
          "type": "bytes"
        },
        {
          "internalType": "bytes",
          "name": "_message",
          "type": "bytes"
        }
      ],
      "name": "process",
      "outputs": [],
      "stateMutability": "payable",
      "type": "function"
    },
    {
      "inputs": [
        {
          "internalType": "bytes32",
          "name": "_id",
          "type": "bytes32"
        }
      ],
      "name": "processedAt",
      "outputs": [
        {
          "internalType": "uint48",
          "name": "",
          "type": "uint48"
        }
      ],
      "stateMutability": "view",
      "type": "function"
    },
    {
      "inputs": [
        {
          "internalType": "bytes32",
          "name": "_id",
          "type": "bytes32"
        }
      ],
      "name": "processor",
      "outputs": [
        {
          "internalType": "address",
          "name": "",
          "type": "address"
        }
      ],
      "stateMutability": "view",
      "type": "function"
    },
    {
      "inputs": [
        {
          "internalType": "uint32",
          "name": "destinationDomain",
          "type": "uint32"
        },
        {
          "internalType": "bytes32",
          "name": "recipientAddress",
          "type": "bytes32"
        },
        {
          "internalType": "bytes",
          "name": "messageBody",
          "type": "bytes"
        },
        {
          "internalType": "bytes",
          "name": "metadata",
          "type": "bytes"
        },
        {
          "internalType": "contract IPostDispatchHook",
          "name": "hook",
          "type": "address"
        }
      ],
      "name": "quoteDispatch",
      "outputs": [
        {
          "internalType": "uint256",
          "name": "fee",
          "type": "uint256"
        }
      ],
      "stateMutability": "view",
      "type": "function"
    },
    {
      "inputs": [
        {
          "internalType": "uint32",
          "name": "destinationDomain",
          "type": "uint32"
        },
        {
          "internalType": "bytes32",
          "name": "recipientAddress",
          "type": "bytes32"
        },
        {
          "internalType": "bytes",
          "name": "messageBody",
          "type": "bytes"
        }
      ],
      "name": "quoteDispatch",
      "outputs": [
        {
          "internalType": "uint256",
          "name": "fee",
          "type": "uint256"
        }
      ],
      "stateMutability": "view",
      "type": "function"
    },
    {
      "inputs": [
        {
          "internalType": "uint32",
          "name": "destinationDomain",
          "type": "uint32"
        },
        {
          "internalType": "bytes32",
          "name": "recipientAddress",
          "type": "bytes32"
        },
        {
          "internalType": "bytes",
          "name": "messageBody",
          "type": "bytes"
        },
        {
          "internalType": "bytes",
          "name": "defaultHookMetadata",
          "type": "bytes"
        }
      ],
      "name": "quoteDispatch",
      "outputs": [
        {
          "internalType": "uint256",
          "name": "fee",
          "type": "uint256"
        }
      ],
      "stateMutability": "view",
      "type": "function"
    },
    {
      "inputs": [
        {
          "internalType": "address",
          "name": "_recipient",
          "type": "address"
        }
      ],
      "name": "recipientIsm",
      "outputs": [
        {
          "internalType": "contract IInterchainSecurityModule",
          "name": "",
          "type": "address"
        }
      ],
      "stateMutability": "view",
      "type": "function"
    },
    {
      "inputs": [],
      "name": "renounceOwnership",
      "outputs": [],
      "stateMutability": "nonpayable",
      "type": "function"
    },
    {
      "inputs": [],
      "name": "requiredHook",
      "outputs": [
        {
          "internalType": "contract IPostDispatchHook",
          "name": "",
          "type": "address"
        }
      ],
      "stateMutability": "view",
      "type": "function"
    },
    {
      "inputs": [
        {
          "internalType": "address",
          "name": "_hook",
          "type": "address"
        }
      ],
      "name": "setDefaultHook",
      "outputs": [],
      "stateMutability": "nonpayable",
      "type": "function"
    },
    {
      "inputs": [
        {
          "internalType": "address",
          "name": "_module",
          "type": "address"
        }
      ],
      "name": "setDefaultIsm",
      "outputs": [],
      "stateMutability": "nonpayable",
      "type": "function"
    },
    {
      "inputs": [
        {
          "internalType": "address",
          "name": "_hook",
          "type": "address"
        }
      ],
      "name": "setRequiredHook",
      "outputs": [],
      "stateMutability": "nonpayable",
      "type": "function"
    },
    {
      "inputs": [
        {
          "internalType": "address",
          "name": "newOwner",
          "type": "address"
        }
      ],
      "name": "transferOwnership",
      "outputs": [],
      "stateMutability": "nonpayable",
      "type": "function"
    }
  ],
  "bytecode": "0x60c06040523480156200001157600080fd5b506040516200328c3803806200328c8339818101604052810190620000379190620000a0565b43608081815250508063ffffffff1660a08163ffffffff168152505050620000d2565b600080fd5b600063ffffffff82169050919050565b6200007a816200005f565b81146200008657600080fd5b50565b6000815190506200009a816200006f565b92915050565b600060208284031215620000b957620000b86200005a565b5b6000620000c98482850162000089565b91505092915050565b60805160a0516131866200010660003960008181610bdc0152818161116e01526118530152600061114a01526131866000f3fe60806040526004361061019c5760003560e01c80638da5cb5b116100ec578063e70f48ac1161008a578063f7ccd32111610064578063f7ccd321146105c9578063f8c8765e14610606578063fa31de011461062f578063ffa1ad741461065f5761019c565b8063e70f48ac1461053a578063f2fde38b14610577578063f794687a146105a05761019c565b80639c42bd18116100c65780639c42bd181461046a578063affed0e0146104a7578063d6d08a09146104d2578063e495f1d4146104fd5761019c565b80638da5cb5b146103eb57806393c448471461041657806399b04809146104415761019c565b80635d1fe5a9116101595780637c39d130116101335780637c39d1301461033c57806381d2ea951461035857806382ea7bfe146103955780638d3638f4146103c05761019c565b80635d1fe5a9146102bd5780636e5f516e146102fa578063715018a6146103255761019c565b806307a2fda1146101a157806310b83dc0146101de578063134fbb4f1461020e5780631426b7f4146102395780633d1250b71461026257806348aee8d41461028d575b600080fd5b3480156101ad57600080fd5b506101c860048036038101906101c39190611d1e565b61068a565b6040516101d59190611d6c565b60405180910390f35b6101f860048036038101906101f39190611e98565b6106bc565b6040516102059190611f63565b60405180910390f35b34801561021a57600080fd5b506102236109cc565b6040516102309190611f63565b60405180910390f35b34801561024557600080fd5b50610260600480360381019061025b9190611faa565b6109d2565b005b34801561026e57600080fd5b50610277610aa9565b6040516102849190612036565b60405180910390f35b6102a760048036038101906102a29190612051565b610acf565b6040516102b49190611f63565b60405180910390f35b3480156102c957600080fd5b506102e460048036038101906102df9190611d1e565b610b0e565b6040516102f19190612107565b60405180910390f35b34801561030657600080fd5b5061030f610b4e565b60405161031c9190612143565b60405180910390f35b34801561033157600080fd5b5061033a610b74565b005b6103566004803603810190610351919061215e565b610b88565b005b34801561036457600080fd5b5061037f600480360381019061037a9190611e98565b610fa7565b60405161038c91906121f8565b60405180910390f35b3480156103a157600080fd5b506103aa611148565b6040516103b791906121f8565b60405180910390f35b3480156103cc57600080fd5b506103d561116c565b6040516103e29190612222565b60405180910390f35b3480156103f757600080fd5b50610400611190565b60405161040d9190612107565b60405180910390f35b34801561042257600080fd5b5061042b6111ba565b60405161043891906122cd565b60405180910390f35b34801561044d57600080fd5b5061046860048036038101906104639190611faa565b6111f3565b005b34801561047657600080fd5b50610491600480360381019061048c91906122ef565b6112ca565b60405161049e91906121f8565b60405180910390f35b3480156104b357600080fd5b506104bc611319565b6040516104c99190612222565b60405180910390f35b3480156104de57600080fd5b506104e761132f565b6040516104f49190612036565b60405180910390f35b34801561050957600080fd5b50610524600480360381019061051f9190611d1e565b611355565b604051610531919061237e565b60405180910390f35b34801561054657600080fd5b50610561600480360381019061055c9190611faa565b611391565b60405161056e9190612143565b60405180910390f35b34801561058357600080fd5b5061059e60048036038101906105999190611faa565b6114e4565b005b3480156105ac57600080fd5b506105c760048036038101906105c29190611faa565b611567565b005b3480156105d557600080fd5b506105f060048036038101906105eb9190612051565b61163e565b6040516105fd91906121f8565b60405180910390f35b34801561061257600080fd5b5061062d60048036038101906106289190612399565b61167d565b005b610649600480360381019061064491906122ef565b6117e3565b6040516106569190611f63565b60405180910390f35b34801561066b57600080fd5b50610674611832565b604051610681919061241c565b60405180910390f35b6000606a600083815260200190815260200160002060000160149054906101000a900465ffffffffffff169050919050565b60008073ffffffffffffffffffffffffffffffffffffffff168273ffffffffffffffffffffffffffffffffffffffff160361071757606860009054906101000a900473ffffffffffffffffffffffffffffffffffffffff1691505b600061072589898989611837565b90506000610732826118a4565b9050806066819055506001606560008282829054906101000a900463ffffffff1661075d9190612466565b92506101000a81548163ffffffff021916908363ffffffff160217905550888a63ffffffff163373ffffffffffffffffffffffffffffffffffffffff167f769f711d20c679153d382254f59892613b58a97cc876b249134ac25c80f9c814856040516107c991906124f3565b60405180910390a4807f788dbc1b7152732178210e7f4d9d010ef016f9eafbe66786bd7169f56e0c353a60405160405180910390a26000606960009054906101000a900473ffffffffffffffffffffffffffffffffffffffff1673ffffffffffffffffffffffffffffffffffffffff1663aaccd2308888866040518463ffffffff1660e01b815260040161085f93929190612551565b602060405180830381865afa15801561087c573d6000803e3d6000fd5b505050506040513d601f19601f820116820180604052508101906108a091906125b6565b9050803410156108ae573490505b606960009054906101000a900473ffffffffffffffffffffffffffffffffffffffff1673ffffffffffffffffffffffffffffffffffffffff1663086011b9828989876040518563ffffffff1660e01b815260040161090e93929190612551565b6000604051808303818588803b15801561092757600080fd5b505af115801561093b573d6000803e3d6000fd5b50505050508473ffffffffffffffffffffffffffffffffffffffff1663086011b9823461096891906125e3565b8989876040518563ffffffff1660e01b815260040161098993929190612551565b6000604051808303818588803b1580156109a257600080fd5b505af11580156109b6573d6000803e3d6000fd5b5050505050819350505050979650505050505050565b60665481565b6109da6118b5565b6109e381611933565b610a22576040517f08c379a0000000000000000000000000000000000000000000000000000000008152600401610a1990612689565b60405180910390fd5b80606960006101000a81548173ffffffffffffffffffffffffffffffffffffffff021916908373ffffffffffffffffffffffffffffffffffffffff1602179055508073ffffffffffffffffffffffffffffffffffffffff167f329ec8e2438a73828ecf31a6568d7a91d7b1d79e342b0692914fd053d1a002b160405160405180910390a250565b606860009054906101000a900473ffffffffffffffffffffffffffffffffffffffff1681565b6000610b02878787878787606860009054906101000a900473ffffffffffffffffffffffffffffffffffffffff166106bc565b90509695505050505050565b6000606a600083815260200190815260200160002060000160009054906101000a900473ffffffffffffffffffffffffffffffffffffffff169050919050565b606760009054906101000a900473ffffffffffffffffffffffffffffffffffffffff1681565b610b7c6118b5565b610b866000611956565b565b600360ff16610b978383611a1c565b60ff1614610bda576040517f08c379a0000000000000000000000000000000000000000000000000000000008152600401610bd1906126f5565b60405180910390fd5b7f000000000000000000000000000000000000000000000000000000000000000063ffffffff16610c0b8383611a48565b63ffffffff1614610c51576040517f08c379a0000000000000000000000000000000000000000000000000000000008152600401610c4890612761565b60405180910390fd5b6000610ca083838080601f016020809104026020016040519081016040528093929190818152602001838380828437600081840152601f19601f820116905080830192505050505050506118a4565b905060001515610caf82611355565b151514610cf1576040517f08c379a0000000000000000000000000000000000000000000000000000000008152600401610ce8906127cd565b60405180910390fd5b6000610cfd8484611a74565b90506000610d0a82611391565b905060405180604001604052803373ffffffffffffffffffffffffffffffffffffffff1681526020014365ffffffffffff16815250606a600085815260200190815260200160002060008201518160000160006101000a81548173ffffffffffffffffffffffffffffffffffffffff021916908373ffffffffffffffffffffffffffffffffffffffff16021790555060208201518160000160146101000a81548165ffffffffffff021916908365ffffffffffff1602179055509050508173ffffffffffffffffffffffffffffffffffffffff16610de88686611a90565b610df28787611ab9565b63ffffffff167f0d381c2a574ae8f04e213db7cfb4df8df712cdbd427d9868ffef380660ca657460405160405180910390a4827f1cae38cdd3d3919489272725a5ae62a4f48b2989b0dae843d3c279fee18073a960405160405180910390a28073ffffffffffffffffffffffffffffffffffffffff1663f7e83aee888888886040518563ffffffff1660e01b8152600401610e9094939291906127ed565b6020604051808303816000875af1158015610eaf573d6000803e3d6000fd5b505050506040513d601f19601f82011682018060405250810190610ed39190612854565b610f12576040517f08c379a0000000000000000000000000000000000000000000000000000000008152600401610f09906128cd565b60405180910390fd5b8173ffffffffffffffffffffffffffffffffffffffff166356d5d47534610f398888611ab9565b610f438989611a90565b610f4d8a8a611ae5565b6040518663ffffffff1660e01b8152600401610f6c94939291906128ed565b6000604051808303818588803b158015610f8557600080fd5b505af1158015610f99573d6000803e3d6000fd5b505050505050505050505050565b60008073ffffffffffffffffffffffffffffffffffffffff168273ffffffffffffffffffffffffffffffffffffffff160361100257606860009054906101000a900473ffffffffffffffffffffffffffffffffffffffff1691505b600061101089898989611837565b90508273ffffffffffffffffffffffffffffffffffffffff1663aaccd2308686846040518463ffffffff1660e01b815260040161104f93929190612551565b602060405180830381865afa15801561106c573d6000803e3d6000fd5b505050506040513d601f19601f8201168201806040525081019061109091906125b6565b606960009054906101000a900473ffffffffffffffffffffffffffffffffffffffff1673ffffffffffffffffffffffffffffffffffffffff1663aaccd2308787856040518463ffffffff1660e01b81526004016110ef93929190612551565b602060405180830381865afa15801561110c573d6000803e3d6000fd5b505050506040513d601f19601f8201168201806040525081019061113091906125b6565b61113a919061292d565b915050979650505050505050565b7f000000000000000000000000000000000000000000000000000000000000000081565b7f000000000000000000000000000000000000000000000000000000000000000081565b6000603360009054906101000a900473ffffffffffffffffffffffffffffffffffffffff16905090565b6040518060400160405280600681526020017f31302e312e33000000000000000000000000000000000000000000000000000081525081565b6111fb6118b5565b61120481611933565b611243576040517f08c379a000000000000000000000000000000000000000000000000000000000815260040161123a906129d3565b60405180910390fd5b80606860006101000a81548173ffffffffffffffffffffffffffffffffffffffff021916908373ffffffffffffffffffffffffffffffffffffffff1602179055508073ffffffffffffffffffffffffffffffffffffffff167f65a63e5066ee2fcdf9d32a7f1bf7ce71c76066f19d0609dddccd334ab87237d760405160405180910390a250565b600061130f8585858587876000906000926112e7939291906129fd565b606860009054906101000a900473ffffffffffffffffffffffffffffffffffffffff16610fa7565b9050949350505050565b606560009054906101000a900463ffffffff1681565b606960009054906101000a900473ffffffffffffffffffffffffffffffffffffffff1681565b600080606a600084815260200190815260200160002060000160149054906101000a900465ffffffffffff1665ffffffffffff16119050919050565b60008060008373ffffffffffffffffffffffffffffffffffffffff1660405160240160405160208183030381529060405263de523cf360e01b6020820180517bffffffffffffffffffffffffffffffffffffffffffffffffffffffff83818316178352505050506040516114059190612a74565b600060405180830381855afa9150503d8060008114611440576040519150601f19603f3d011682016040523d82523d6000602084013e611445565b606091505b509150915081801561145957506000815114155b156114b7576000818060200190518101906114749190612ac9565b9050600073ffffffffffffffffffffffffffffffffffffffff168173ffffffffffffffffffffffffffffffffffffffff16146114b5578093505050506114df565b505b606760009054906101000a900473ffffffffffffffffffffffffffffffffffffffff16925050505b919050565b6114ec6118b5565b600073ffffffffffffffffffffffffffffffffffffffff168173ffffffffffffffffffffffffffffffffffffffff160361155b576040517f08c379a000000000000000000000000000000000000000000000000000000000815260040161155290612b68565b60405180910390fd5b61156481611956565b50565b61156f6118b5565b61157881611933565b6115b7576040517f08c379a00000000000000000000000000000000000000000000000000000000081526004016115ae90612bfa565b60405180910390fd5b80606760006101000a81548173ffffffffffffffffffffffffffffffffffffffff021916908373ffffffffffffffffffffffffffffffffffffffff1602179055508073ffffffffffffffffffffffffffffffffffffffff167fa76ad0adbf45318f8633aa0210f711273d50fbb6fef76ed95bbae97082c75daa60405160405180910390a250565b6000611671878787878787606860009054906101000a900473ffffffffffffffffffffffffffffffffffffffff16610fa7565b90509695505050505050565b60008060019054906101000a900460ff161590508080156116ae5750600160008054906101000a900460ff1660ff16105b806116db57506116bd30611b06565b1580156116da5750600160008054906101000a900460ff1660ff16145b5b61171a576040517f08c379a000000000000000000000000000000000000000000000000000000000815260040161171190612c8c565b60405180910390fd5b60016000806101000a81548160ff021916908360ff1602179055508015611757576001600060016101000a81548160ff0219169083151502179055505b61175f611b29565b61176884611567565b611771836111f3565b61177a826109d2565b611783856114e4565b80156117dc5760008060016101000a81548160ff0219169083151502179055507f7f26b83ff96e1f2b6a682f133852f6798a09c465da95921460cefb384740249860016040516117d39190612ce7565b60405180910390a15b5050505050565b6000611828858585858787600090600092611800939291906129fd565b606860009054906101000a900473ffffffffffffffffffffffffffffffffffffffff166106bc565b9050949350505050565b600381565b606061189a6003606560009054906101000a900463ffffffff167f00000000000000000000000000000000000000000000000000000000000000006118913373ffffffffffffffffffffffffffffffffffffffff16611b82565b89898989611ba5565b9050949350505050565b600081805190602001209050919050565b6118bd611be3565b73ffffffffffffffffffffffffffffffffffffffff166118db611190565b73ffffffffffffffffffffffffffffffffffffffff1614611931576040517f08c379a000000000000000000000000000000000000000000000000000000000815260040161192890612d4e565b60405180910390fd5b565b6000808273ffffffffffffffffffffffffffffffffffffffff163b119050919050565b6000603360009054906101000a900473ffffffffffffffffffffffffffffffffffffffff16905081603360006101000a81548173ffffffffffffffffffffffffffffffffffffffff021916908373ffffffffffffffffffffffffffffffffffffffff1602179055508173ffffffffffffffffffffffffffffffffffffffff168173ffffffffffffffffffffffffffffffffffffffff167f8be0079c531659141344cd1fd0a4f28419497f9722a3daafe3b4186f6b6457e060405160405180910390a35050565b60008282600090600192611a32939291906129fd565b90611a3d9190612db2565b60f81c905092915050565b60008282602990602d92611a5e939291906129fd565b90611a699190612e3d565b60e01c905092915050565b6000611a88611a838484611beb565b611c14565b905092915050565b60008282600990602992611aa6939291906129fd565b90611ab19190612e9c565b905092915050565b60008282600590600992611acf939291906129fd565b90611ada9190612e3d565b60e01c905092915050565b3660008383604d908092611afb939291906129fd565b915091509250929050565b6000808273ffffffffffffffffffffffffffffffffffffffff163b119050919050565b600060019054906101000a900460ff16611b78576040517f08c379a0000000000000000000000000000000000000000000000000000000008152600401611b6f90612f6d565b60405180910390fd5b611b80611c7d565b565b60008173ffffffffffffffffffffffffffffffffffffffff1660001b9050919050565b60608888888888888888604051602001611bc698979695949392919061303f565b604051602081830303815290604052905098975050505050505050565b600033905090565b60008282602d90604d92611c01939291906129fd565b90611c0c9190612e9c565b905092915050565b600073ffffffffffffffffffffffffffffffffffffffff80168260001c1115611c72576040517f08c379a0000000000000000000000000000000000000000000000000000000008152600401611c6990613130565b60405180910390fd5b8160001c9050919050565b600060019054906101000a900460ff16611ccc576040517f08c379a0000000000000000000000000000000000000000000000000000000008152600401611cc390612f6d565b60405180910390fd5b611cdc611cd7611be3565b611956565b565b600080fd5b600080fd5b6000819050919050565b611cfb81611ce8565b8114611d0657600080fd5b50565b600081359050611d1881611cf2565b92915050565b600060208284031215611d3457611d33611cde565b5b6000611d4284828501611d09565b91505092915050565b600065ffffffffffff82169050919050565b611d6681611d4b565b82525050565b6000602082019050611d816000830184611d5d565b92915050565b600063ffffffff82169050919050565b611da081611d87565b8114611dab57600080fd5b50565b600081359050611dbd81611d97565b92915050565b600080fd5b600080fd5b600080fd5b60008083601f840112611de857611de7611dc3565b5b8235905067ffffffffffffffff811115611e0557611e04611dc8565b5b602083019150836001820283011115611e2157611e20611dcd565b5b9250929050565b600073ffffffffffffffffffffffffffffffffffffffff82169050919050565b6000611e5382611e28565b9050919050565b6000611e6582611e48565b9050919050565b611e7581611e5a565b8114611e8057600080fd5b50565b600081359050611e9281611e6c565b92915050565b600080600080600080600060a0888a031215611eb757611eb6611cde565b5b6000611ec58a828b01611dae565b9750506020611ed68a828b01611d09565b965050604088013567ffffffffffffffff811115611ef757611ef6611ce3565b5b611f038a828b01611dd2565b9550955050606088013567ffffffffffffffff811115611f2657611f25611ce3565b5b611f328a828b01611dd2565b93509350506080611f458a828b01611e83565b91505092959891949750929550565b611f5d81611ce8565b82525050565b6000602082019050611f786000830184611f54565b92915050565b611f8781611e48565b8114611f9257600080fd5b50565b600081359050611fa481611f7e565b92915050565b600060208284031215611fc057611fbf611cde565b5b6000611fce84828501611f95565b91505092915050565b6000819050919050565b6000611ffc611ff7611ff284611e28565b611fd7565b611e28565b9050919050565b600061200e82611fe1565b9050919050565b600061202082612003565b9050919050565b61203081612015565b82525050565b600060208201905061204b6000830184612027565b92915050565b6000806000806000806080878903121561206e5761206d611cde565b5b600061207c89828a01611dae565b965050602061208d89828a01611d09565b955050604087013567ffffffffffffffff8111156120ae576120ad611ce3565b5b6120ba89828a01611dd2565b9450945050606087013567ffffffffffffffff8111156120dd576120dc611ce3565b5b6120e989828a01611dd2565b92509250509295509295509295565b61210181611e48565b82525050565b600060208201905061211c60008301846120f8565b92915050565b600061212d82612003565b9050919050565b61213d81612122565b82525050565b60006020820190506121586000830184612134565b92915050565b6000806000806040858703121561217857612177611cde565b5b600085013567ffffffffffffffff81111561219657612195611ce3565b5b6121a287828801611dd2565b9450945050602085013567ffffffffffffffff8111156121c5576121c4611ce3565b5b6121d187828801611dd2565b925092505092959194509250565b6000819050919050565b6121f2816121df565b82525050565b600060208201905061220d60008301846121e9565b92915050565b61221c81611d87565b82525050565b60006020820190506122376000830184612213565b92915050565b600081519050919050565b600082825260208201905092915050565b60005b8381101561227757808201518184015260208101905061225c565b60008484015250505050565b6000601f19601f8301169050919050565b600061229f8261223d565b6122a98185612248565b93506122b9818560208601612259565b6122c281612283565b840191505092915050565b600060208201905081810360008301526122e78184612294565b905092915050565b6000806000806060858703121561230957612308611cde565b5b600061231787828801611dae565b945050602061232887828801611d09565b935050604085013567ffffffffffffffff81111561234957612348611ce3565b5b61235587828801611dd2565b925092505092959194509250565b60008115159050919050565b61237881612363565b82525050565b6000602082019050612393600083018461236f565b92915050565b600080600080608085870312156123b3576123b2611cde565b5b60006123c187828801611f95565b94505060206123d287828801611f95565b93505060406123e387828801611f95565b92505060606123f487828801611f95565b91505092959194509250565b600060ff82169050919050565b61241681612400565b82525050565b6000602082019050612431600083018461240d565b92915050565b7f4e487b7100000000000000000000000000000000000000000000000000000000600052601160045260246000fd5b600061247182611d87565b915061247c83611d87565b9250828201905063ffffffff81111561249857612497612437565b5b92915050565b600081519050919050565b600082825260208201905092915050565b60006124c58261249e565b6124cf81856124a9565b93506124df818560208601612259565b6124e881612283565b840191505092915050565b6000602082019050818103600083015261250d81846124ba565b905092915050565b82818337600083830152505050565b600061253083856124a9565b935061253d838584612515565b61254683612283565b840190509392505050565b6000604082019050818103600083015261256c818587612524565b9050818103602083015261258081846124ba565b9050949350505050565b612593816121df565b811461259e57600080fd5b50565b6000815190506125b08161258a565b92915050565b6000602082840312156125cc576125cb611cde565b5b60006125da848285016125a1565b91505092915050565b60006125ee826121df565b91506125f9836121df565b925082820390508181111561261157612610612437565b5b92915050565b7f4d61696c626f783a20726571756972656420686f6f6b206e6f7420636f6e747260008201527f6163740000000000000000000000000000000000000000000000000000000000602082015250565b6000612673602383612248565b915061267e82612617565b604082019050919050565b600060208201905081810360008301526126a281612666565b9050919050565b7f4d61696c626f783a206261642076657273696f6e000000000000000000000000600082015250565b60006126df601483612248565b91506126ea826126a9565b602082019050919050565b6000602082019050818103600083015261270e816126d2565b9050919050565b7f4d61696c626f783a20756e65787065637465642064657374696e6174696f6e00600082015250565b600061274b601f83612248565b915061275682612715565b602082019050919050565b6000602082019050818103600083015261277a8161273e565b9050919050565b7f4d61696c626f783a20616c72656164792064656c697665726564000000000000600082015250565b60006127b7601a83612248565b91506127c282612781565b602082019050919050565b600060208201905081810360008301526127e6816127aa565b9050919050565b60006040820190508181036000830152612808818688612524565b9050818103602083015261281d818486612524565b905095945050505050565b61283181612363565b811461283c57600080fd5b50565b60008151905061284e81612828565b92915050565b60006020828403121561286a57612869611cde565b5b60006128788482850161283f565b91505092915050565b7f4d61696c626f783a2049534d20766572696669636174696f6e206661696c6564600082015250565b60006128b7602083612248565b91506128c282612881565b602082019050919050565b600060208201905081810360008301526128e6816128aa565b9050919050565b60006060820190506129026000830187612213565b61290f6020830186611f54565b8181036040830152612922818486612524565b905095945050505050565b6000612938826121df565b9150612943836121df565b925082820190508082111561295b5761295a612437565b5b92915050565b7f4d61696c626f783a2064656661756c7420686f6f6b206e6f7420636f6e74726160008201527f6374000000000000000000000000000000000000000000000000000000000000602082015250565b60006129bd602283612248565b91506129c882612961565b604082019050919050565b600060208201905081810360008301526129ec816129b0565b9050919050565b600080fd5b600080fd5b60008085851115612a1157612a106129f3565b5b83861115612a2257612a216129f8565b5b6001850283019150848603905094509492505050565b600081905092915050565b6000612a4e8261249e565b612a588185612a38565b9350612a68818560208601612259565b80840191505092915050565b6000612a808284612a43565b915081905092915050565b6000612a9682611e28565b9050919050565b612aa681612a8b565b8114612ab157600080fd5b50565b600081519050612ac381612a9d565b92915050565b600060208284031215612adf57612ade611cde565b5b6000612aed84828501612ab4565b91505092915050565b7f4f776e61626c653a206e6577206f776e657220697320746865207a65726f206160008201527f6464726573730000000000000000000000000000000000000000000000000000602082015250565b6000612b52602683612248565b9150612b5d82612af6565b604082019050919050565b60006020820190508181036000830152612b8181612b45565b9050919050565b7f4d61696c626f783a2064656661756c742049534d206e6f7420636f6e7472616360008201527f7400000000000000000000000000000000000000000000000000000000000000602082015250565b6000612be4602183612248565b9150612bef82612b88565b604082019050919050565b60006020820190508181036000830152612c1381612bd7565b9050919050565b7f496e697469616c697a61626c653a20636f6e747261637420697320616c72656160008201527f647920696e697469616c697a6564000000000000000000000000000000000000602082015250565b6000612c76602e83612248565b9150612c8182612c1a565b604082019050919050565b60006020820190508181036000830152612ca581612c69565b9050919050565b6000819050919050565b6000612cd1612ccc612cc784612cac565b611fd7565b612400565b9050919050565b612ce181612cb6565b82525050565b6000602082019050612cfc6000830184612cd8565b92915050565b7f4f776e61626c653a2063616c6c6572206973206e6f7420746865206f776e6572600082015250565b6000612d38602083612248565b9150612d4382612d02565b602082019050919050565b60006020820190508181036000830152612d6781612d2b565b9050919050565b600082905092915050565b60007fff0000000000000000000000000000000000000000000000000000000000000082169050919050565b600082821b905092915050565b6000612dbe8383612d6e565b82612dc98135612d79565b92506001821015612e0957612e047fff0000000000000000000000000000000000000000000000000000000000000083600103600802612da5565b831692505b505092915050565b60007fffffffff0000000000000000000000000000000000000000000000000000000082169050919050565b6000612e498383612d6e565b82612e548135612e11565b92506004821015612e9457612e8f7fffffffff0000000000000000000000000000000000000000000000000000000083600403600802612da5565b831692505b505092915050565b6000612ea88383612d6e565b82612eb38135611ce8565b92506020821015612ef357612eee7fffffffffffffffffffffffffffffffffffffffffffffffffffffffffffffffff83602003600802612da5565b831692505b505092915050565b7f496e697469616c697a61626c653a20636f6e7472616374206973206e6f74206960008201527f6e697469616c697a696e67000000000000000000000000000000000000000000602082015250565b6000612f57602b83612248565b9150612f6282612efb565b604082019050919050565b60006020820190508181036000830152612f8681612f4a565b9050919050565b60008160f81b9050919050565b6000612fa582612f8d565b9050919050565b612fbd612fb882612400565b612f9a565b82525050565b60008160e01b9050919050565b6000612fdb82612fc3565b9050919050565b612ff3612fee82611d87565b612fd0565b82525050565b6000819050919050565b61301461300f82611ce8565b612ff9565b82525050565b60006130268385612a38565b9350613033838584612515565b82840190509392505050565b600061304b828b612fac565b60018201915061305b828a612fe2565b60048201915061306b8289612fe2565b60048201915061307b8288613003565b60208201915061308b8287612fe2565b60048201915061309b8286613003565b6020820191506130ac82848661301a565b91508190509998505050505050505050565b7f5479706543617374733a2062797465733332546f41646472657373206f76657260008201527f666c6f7700000000000000000000000000000000000000000000000000000000602082015250565b600061311a602483612248565b9150613125826130be565b604082019050919050565b600060208201905081810360008301526131498161310d565b905091905056fea26469706673582212201accf2f3f1afd52989ed951ea01fc6a678eae2cdd974095d63bf1c07b09b932c64736f6c63430008180033",
  "linkReferences": {},
  "deployedLinkReferences": {}
}