{"contracts/mocks/MockMailbox.sol":{"MockMailbox":{"abi":[{"anonymous":false,"inputs":[{"indexed":false,"internalType":"uint32","name":"destinationDomain","type":"uint32"},{"indexed":false,"internalType":"bytes32","name":"recipient","type":"bytes32"},{"indexed":false,"internalType":"bytes","name":"message","type":"bytes"},{"indexed":false,"internalType":"bytes32","name":"messageId","type":"bytes32"}],"name":"Dispatched","type":"event"},{"inputs":[{"internalType":"uint32","name":"_destinationDomain","type":"uint32"},{"internalType":"bytes32","name":"_recipient","type":"bytes32"},{"internalType":"bytes","name":"_message","type":"bytes"}],"name":"dispatch","outputs":[{"internalType":"bytes32","name":"","type":"bytes32"}],"stateMutability":"payable","type":"function"},{"inputs":[],"name":"latestMessageId","outputs":[{"internalType":"bytes32","name":"","type":"bytes32"}],"stateMutability":"view","type":"function"},{"inputs":[{"internalType":"uint256","name":"","type":"uint256"}],"name":"messageIds","outputs":[{"internalType":"bytes32","name":"","type":"bytes32"}],"stateMutability":"view","type":"function"},{"inputs":[{"internalType":"bytes32","name":"","type":"bytes32"}],"name":"processor","outputs":[{"internalType":"address","name":"","type":"address"}],"stateMutability":"view","type":"function"},{"inputs":[],"name":"processorAddress","outputs":[{"internalType":"address","name":"","type":"address"}],"stateMutability":"view","type":"function"},{"inputs":[{"internalType":"address","name":"_processor","type":"address"}],"name":"setProcessor","outputs":[],"stateMutability":"nonpayable","type":"function"}],"evm":{"bytecode":{"linkReferences":{},"object":"608060405234801561001057600080fd5b5061044b806100206000396000f3fe6080604052600436106100555760003560e01c80635d1fe5a91461005a578063661d1300146100a25780639d17b9c5146100c5578063b27daded146100e5578063e1a8eafd14610105578063fa31de0114610144575b600080fd5b34801561006657600080fd5b50610085610075366004610269565b506001546001600160a01b031690565b6040516001600160a01b0390911681526020015b60405180910390f35b3480156100ae57600080fd5b506100b7610157565b604051908152602001610099565b3480156100d157600080fd5b506100b76100e0366004610269565b610197565b3480156100f157600080fd5b50600154610085906001600160a01b031681565b34801561011157600080fd5b50610142610120366004610282565b600180546001600160a01b0319166001600160a01b0392909216919091179055565b005b6100b76101523660046102b2565b6101b8565b6000805481036101675750600090565b6000805461017790600190610344565b815481106101875761018761036b565b9060005260206000200154905090565b600081815481106101a757600080fd5b600091825260209091200154905081565b6000803386868686436040516020016101d696959493929190610381565b60408051601f19818403018152908290528051602090910120600080546001810182559080527f290decd9548b62a8d60345a988386fc84ba6bc95484008f6362f93160ef3e5630181905591507f702101d271c313f1c728ead57999d5742b5a0005d559109347cf03a01b3b21419061025890889088908890889087906103c8565b60405180910390a195945050505050565b60006020828403121561027b57600080fd5b5035919050565b60006020828403121561029457600080fd5b81356001600160a01b03811681146102ab57600080fd5b9392505050565b600080600080606085870312156102c857600080fd5b843563ffffffff811681146102dc57600080fd5b935060208501359250604085013567ffffffffffffffff8082111561030057600080fd5b818701915087601f83011261031457600080fd5b81358181111561032357600080fd5b88602082850101111561033557600080fd5b95989497505060200194505050565b8181038181111561036557634e487b7160e01b600052601160045260246000fd5b92915050565b634e487b7160e01b600052603260045260246000fd5b6bffffffffffffffffffffffff198760601b16815263ffffffff60e01b8660e01b166014820152846018820152828460388301376038920191820152605801949350505050565b63ffffffff8616815284602082015260806040820152826080820152828460a0830137600060a08483010152600060a0601f19601f8601168301019050826060830152969550505050505056fea2646970667358221220632239bd4e57015c9a8373591c43e749e54cfadacb1a8b75f27acb5358cbaf4964736f6c63430008180033","opcodes":"PUSH1 0x80 PUSH1 0x40 MSTORE CALLVALUE DUP1 ISZERO PUSH2 0x10 JUMPI PUSH1 0x0 DUP1 REVERT JUMPDEST POP PUSH2 0x44B DUP1 PUSH2 0x20 PUSH1 0x0 CODECOPY PUSH1 0x0 RETURN INVALID PUSH1 0x80 PUSH1 0x40 MSTORE PUSH1 0x4 CALLDATASIZE LT PUSH2 0x55 JUMPI PUSH1 0x0 CALLDATALOAD PUSH1 0xE0 SHR DUP1 PUSH4 0x5D1FE5A9 EQ PUSH2 0x5A JUMPI DUP1 PUSH4 0x661D1300 EQ PUSH2 0xA2 JUMPI DUP1 PUSH4 0x9D17B9C5 EQ PUSH2 0xC5 JUMPI DUP1 PUSH4 0xB27DADED EQ PUSH2 0xE5 JUMPI DUP1 PUSH4 0xE1A8EAFD EQ PUSH2 0x105 JUMPI DUP1 PUSH4 0xFA31DE01 EQ PUSH2 0x144 JUMPI JUMPDEST PUSH1 0x0 DUP1 REVERT JUMPDEST CALLVALUE DUP1 ISZERO PUSH2 0x66 JUMPI PUSH1 0x0 DUP1 REVERT JUMPDEST POP PUSH2 0x85 PUSH2 0x75 CALLDATASIZE PUSH1 0x4 PUSH2 0x269 JUMP JUMPDEST POP PUSH1 0x1 SLOAD PUSH1 0x1 PUSH1 0x1 PUSH1 0xA0 SHL SUB AND SWAP1 JUMP JUMPDEST PUSH1 0x40 MLOAD PUSH1 0x1 PUSH1 0x1 PUSH1 0xA0 SHL SUB SWAP1 SWAP2 AND DUP2 MSTORE PUSH1 0x20 ADD JUMPDEST PUSH1 0x40 MLOAD DUP1 SWAP2 SUB SWAP1 RETURN JUMPDEST CALLVALUE DUP1 ISZERO PUSH2 0xAE JUMPI PUSH1 0x0 DUP1 REVERT JUMPDEST POP PUSH2 0xB7 PUSH2 0x157 JUMP JUMPDEST PUSH1 0x40 MLOAD SWAP1 DUP2 MSTORE PUSH1 0x20 ADD PUSH2 0x99 JUMP JUMPDEST CALLVALUE DUP1 ISZERO PUSH2 0xD1 JUMPI PUSH1 0x0 DUP1 REVERT JUMPDEST POP PUSH2 0xB7 PUSH2 0xE0 CALLDATASIZE PUSH1 0x4 PUSH2 0x269 JUMP JUMPDEST PUSH2 0x197 JUMP JUMPDEST CALLVALUE DUP1 ISZERO PUSH2 0xF1 JUMPI PUSH1 0x0 DUP1 REVERT JUMPDEST POP PUSH1 0x1 SLOAD PUSH2 0x85 SWAP1 PUSH1 0x1 PUSH1 0x1 PUSH1 0xA0 SHL SUB AND DUP2 JUMP JUMPDEST CALLVALUE DUP1 ISZERO PUSH2 0x111 JUMPI PUSH1 0x0 DUP1 REVERT JUMPDEST POP PUSH2 0x142 PUSH2 0x120 CALLDATASIZE PUSH1 0x4 PUSH2 0x282 JUMP JUMPDEST PUSH1 0x1 DUP1 SLOAD PUSH1 0x1 PUSH1 0x1 PUSH1 0xA0 SHL SUB NOT AND PUSH1 0x1 PUSH1 0x1 PUSH1 0xA0 SHL SUB SWAP3 SWAP1 SWAP3 AND SWAP2 SWAP1 SWAP2 OR SWAP1 SSTORE JUMP JUMPDEST STOP JUMPDEST PUSH2 0xB7 PUSH2 0x152 CALLDATASIZE PUSH1 0x4 PUSH2 0x2B2 JUMP JUMPDEST PUSH2 0x1B8 JUMP JUMPDEST PUSH1 0x0 DUP1 SLOAD DUP2 SUB PUSH2 0x167 JUMPI POP PUSH1 0x0 SWAP1 JUMP JUMPDEST PUSH1 0x0 DUP1 SLOAD PUSH2 0x177 SWAP1 PUSH1 0x1 SWAP1 PUSH2 0x344 JUMP JUMPDEST DUP2 SLOAD DUP2 LT PUSH2 0x187 JUMPI PUSH2 0x187 PUSH2 0x36B JUMP JUMPDEST SWAP1 PUSH1 0x0 MSTORE PUSH1 0x20 PUSH1 0x0 KECCAK256 ADD SLOAD SWAP1 POP SWAP1 JUMP JUMPDEST PUSH1 0x0 DUP2 DUP2 SLOAD DUP2 LT PUSH2 0x1A7 JUMPI PUSH1 0x0 DUP1 REVERT JUMPDEST PUSH1 0x0 SWAP2 DUP3 MSTORE PUSH1 0x20 SWAP1 SWAP2 KECCAK256 ADD SLOAD SWAP1 POP DUP2 JUMP JUMPDEST PUSH1 0x0 DUP1 CALLER DUP7 DUP7 DUP7 DUP7 NUMBER PUSH1 0x40 MLOAD PUSH1 0x20 ADD PUSH2 0x1D6 SWAP7 SWAP6 SWAP5 SWAP4 SWAP3 SWAP2 SWAP1 PUSH2 0x381 JUMP JUMPDEST PUSH1 0x40 DUP1 MLOAD PUSH1 0x1F NOT DUP2 DUP5 SUB ADD DUP2 MSTORE SWAP1 DUP3 SWAP1 MSTORE DUP1 MLOAD PUSH1 0x20 SWAP1 SWAP2 ADD KECCAK256 PUSH1 0x0 DUP1 SLOAD PUSH1 0x1 DUP2 ADD DUP3 SSTORE SWAP1 DUP1 MSTORE PUSH32 0x290DECD9548B62A8D60345A988386FC84BA6BC95484008F6362F93160EF3E563 ADD DUP2 SWAP1 SSTORE SWAP2 POP PUSH32 0x702101D271C313F1C728EAD57999D5742B5A0005D559109347CF03A01B3B2141 SWAP1 PUSH2 0x258 SWAP1 DUP9 SWAP1 DUP9 SWAP1 DUP9 SWAP1 DUP9 SWAP1 DUP8 SWAP1 PUSH2 0x3C8 JUMP JUMPDEST PUSH1 0x40 MLOAD DUP1 SWAP2 SUB SWAP1 LOG1 SWAP6 SWAP5 POP POP POP POP POP JUMP JUMPDEST PUSH1 0x0 PUSH1 0x20 DUP3 DUP5 SUB SLT ISZERO PUSH2 0x27B JUMPI PUSH1 0x0 DUP1 REVERT JUMPDEST POP CALLDATALOAD SWAP2 SWAP1 POP JUMP JUMPDEST PUSH1 0x0 PUSH1 0x20 DUP3 DUP5 SUB SLT ISZERO PUSH2 0x294 JUMPI PUSH1 0x0 DUP1 REVERT JUMPDEST DUP2 CALLDATALOAD PUSH1 0x1 PUSH1 0x1 PUSH1 0xA0 SHL SUB DUP2 AND DUP2 EQ PUSH2 0x2AB JUMPI PUSH1 0x0 DUP1 REVERT JUMPDEST SWAP4 SWAP3 POP POP POP JUMP JUMPDEST PUSH1 0x0 DUP1 PUSH1 0x0 DUP1 PUSH1 0x60 DUP6 DUP8 SUB SLT ISZERO PUSH2 0x2C8 JUMPI PUSH1 0x0 DUP1 REVERT JUMPDEST DUP5 CALLDATALOAD PUSH4 0xFFFFFFFF DUP2 AND DUP2 EQ PUSH2 0x2DC JUMPI PUSH1 0x0 DUP1 REVERT JUMPDEST SWAP4 POP PUSH1 0x20 DUP6 ADD CALLDATALOAD SWAP3 POP PUSH1 0x40 DUP6 ADD CALLDATALOAD PUSH8 0xFFFFFFFFFFFFFFFF DUP1 DUP3 GT ISZERO PUSH2 0x300 JUMPI PUSH1 0x0 DUP1 REVERT JUMPDEST DUP2 DUP8 ADD SWAP2 POP DUP8 PUSH1 0x1F DUP4 ADD SLT PUSH2 0x314 JUMPI PUSH1 0x0 DUP1 REVERT JUMPDEST DUP2 CALLDATALOAD DUP2 DUP2 GT ISZERO PUSH2 0x323 JUMPI PUSH1 0x0 DUP1 REVERT JUMPDEST DUP9 PUSH1 0x20 DUP3 DUP6 ADD ADD GT ISZERO PUSH2 0x335 JUMPI PUSH1 0x0 DUP1 REVERT JUMPDEST SWAP6 SWAP9 SWAP5 SWAP8 POP POP PUSH1 0x20 ADD SWAP5 POP POP POP JUMP JUMPDEST DUP2 DUP2 SUB DUP2 DUP2 GT ISZERO PUSH2 0x365 JUMPI PUSH4 0x4E487B71 PUSH1 0xE0 SHL PUSH1 0x0 MSTORE PUSH1 0x11 PUSH1 0x4 MSTORE PUSH1 0x24 PUSH1 0x0 REVERT JUMPDEST SWAP3 SWAP2 POP POP JUMP JUMPDEST PUSH4 0x4E487B71 PUSH1 0xE0 SHL PUSH1 0x0 MSTORE PUSH1 0x32 PUSH1 0x4 MSTORE PUSH1 0x24 PUSH1 0x0 REVERT JUMPDEST PUSH12 0xFFFFFFFFFFFFFFFFFFFFFFFF NOT DUP8 PUSH1 0x60 SHL AND DUP2 MSTORE PUSH4 0xFFFFFFFF PUSH1 0xE0 SHL DUP7 PUSH1 0xE0 SHL AND PUSH1 0x14 DUP3 ADD MSTORE DUP5 PUSH1 0x18 DUP3 ADD MSTORE DUP3 DUP5 PUSH1 0x38 DUP4 ADD CALLDATACOPY PUSH1 0x38 SWAP3 ADD SWAP2 DUP3 ADD MSTORE PUSH1 0x58 ADD SWAP5 SWAP4 POP POP POP POP JUMP JUMPDEST PUSH4 0xFFFFFFFF DUP7 AND DUP2 MSTORE DUP5 PUSH1 0x20 DUP3 ADD MSTORE PUSH1 0x80 PUSH1 0x40 DUP3 ADD MSTORE DUP3 PUSH1 0x80 DUP3 ADD MSTORE DUP3 DUP5 PUSH1 0xA0 DUP4 ADD CALLDATACOPY PUSH1 0x0 PUSH1 0xA0 DUP5 DUP4 ADD ADD MSTORE PUSH1 0x0 PUSH1 0xA0 PUSH1 0x1F NOT PUSH1 0x1F DUP7 ADD AND DUP4 ADD ADD SWAP1 POP DUP3 PUSH1 0x60 DUP4 ADD MSTORE SWAP7 SWAP6 POP POP POP POP POP POP JUMP INVALID LOG2 PUSH5 0x6970667358 0x22 SLT KECCAK256 PUSH4 0x2239BD4E JUMPI ADD TLOAD SWAP11 DUP4 PUSH20 0x591C43E749E54CFADACB1A8B75F27ACB5358CBAF BLOBHASH PUSH5 0x736F6C6343 STOP ADDMOD XOR STOP CALLER "},"methodIdentifiers":{"dispatch(uint32,bytes32,bytes)":"fa31de01","latestMessageId()":"661d1300","messageIds(uint256)":"9d17b9c5","processor(bytes32)":"5d1fe5a9","processorAddress()":"b27daded","setProcessor(address)":"e1a8eafd"}}}}}