{
  "_format": "hh-sol-artifact-1",
  "contractName": "PrivateTransferVault",
  "sourceName": "contracts/PrivateTransferVault.sol",
  "abi": [
    {
      "inputs": [
        {
          "internalType": "address",
          "name": "mailbox",
          "type": "address"
        }
      ],
      "stateMutability": "nonpayable",
      "type": "constructor"
    },
    {
      "anonymous": false,
      "inputs": [
        {
          "indexed": true,
          "internalType": "bytes32",
          "name": "transferId",
          "type": "bytes32"
        },
        {
          "indexed": true,
          "internalType": "uint32",
          "name": "originDomain",
          "type": "uint32"
        },
        {
          "indexed": true,
          "internalType": "bytes32",
          "name": "originRouter",
          "type": "bytes32"
        },
        {
          "indexed": false,
          "internalType": "bytes",
          "name": "ciphertext",
          "type": "bytes"
        }
      ],
      "name": "EncryptedTransferStored",
      "type": "event"
    },
    {
      "anonymous": false,
      "inputs": [
        {
          "indexed": false,
          "internalType": "address",
          "name": "_hook",
          "type": "address"
        }
      ],
      "name": "HookSet",
      "type": "event"
    },
    {
      "anonymous": false,
      "inputs": [
        {
          "indexed": false,
          "internalType": "uint8",
          "name": "version",
          "type": "uint8"
        }
      ],
      "name": "Initialized",
      "type": "event"
    },
    {
      "anonymous": false,
      "inputs": [
        {
          "indexed": false,
          "internalType": "address",
          "name": "_ism",
          "type": "address"
        }
      ],
      "name": "IsmSet",
      "type": "event"
    },
    {
      "anonymous": false,
      "inputs": [
        {
          "indexed": true,
          "internalType": "address",
          "name": "previousOwner",
          "type": "address"
        },
        {
          "indexed": true,
          "internalType": "address",
          "name": "newOwner",
          "type": "address"
        }
      ],
      "name": "OwnershipTransferred",
      "type": "event"
    },
    {
      "anonymous": false,
      "inputs": [
        {
          "indexed": true,
          "internalType": "bytes32",
          "name": "transferId",
          "type": "bytes32"
        },
        {
          "indexed": false,
          "internalType": "address",
          "name": "receiver",
          "type": "address"
        },
        {
          "indexed": false,
          "internalType": "address",
          "name": "token",
          "type": "address"
        },
        {
          "indexed": false,
          "internalType": "uint256",
          "name": "amount",
          "type": "uint256"
        },
        {
          "indexed": false,
          "internalType": "bool",
          "name": "isNative",
          "type": "bool"
        }
      ],
      "name": "PrivatePayloadProcessed",
      "type": "event"
    },
    {
      "anonymous": false,
      "inputs": [
        {
          "indexed": true,
          "internalType": "bytes32",
          "name": "transferId",
          "type": "bytes32"
        },
        {
          "indexed": true,
          "internalType": "uint32",
          "name": "destinationDomain",
          "type": "uint32"
        }
      ],
      "name": "TransferAcknowledged",
      "type": "event"
    },
    {
      "inputs": [],
      "name": "PACKAGE_VERSION",
      "outputs": [
        {
          "internalType": "string",
          "name": "",
          "type": "string"
        }
      ],
      "stateMutability": "view",
      "type": "function"
    },
    {
      "inputs": [],
      "name": "domains",
      "outputs": [
        {
          "internalType": "uint32[]",
          "name": "",
          "type": "uint32[]"
        }
      ],
      "stateMutability": "view",
      "type": "function"
    },
    {
      "inputs": [
        {
          "internalType": "bytes32",
          "name": "",
          "type": "bytes32"
        }
      ],
      "name": "encryptedTransfers",
      "outputs": [
        {
          "internalType": "uint32",
          "name": "originDomain",
          "type": "uint32"
        },
        {
          "internalType": "bytes32",
          "name": "originRouter",
          "type": "bytes32"
        },
        {
          "components": [
            {
              "internalType": "bytes32",
              "name": "senderPublicKey",
              "type": "bytes32"
            },
            {
              "internalType": "bytes16",
              "name": "nonce",
              "type": "bytes16"
            },
            {
              "internalType": "bytes",
              "name": "ciphertext",
              "type": "bytes"
            }
          ],
          "internalType": "struct PrivateTransferVault.EncryptedEnvelope",
          "name": "envelope",
          "type": "tuple"
        },
        {
          "internalType": "bool",
          "name": "acknowledged",
          "type": "bool"
        }
      ],
      "stateMutability": "view",
      "type": "function"
    },
    {
      "inputs": [
        {
          "internalType": "uint32",
          "name": "_domain",
          "type": "uint32"
        },
        {
          "internalType": "bytes32",
          "name": "_router",
          "type": "bytes32"
        }
      ],
      "name": "enrollRemoteRouter",
      "outputs": [],
      "stateMutability": "nonpayable",
      "type": "function"
    },
    {
      "inputs": [
        {
          "internalType": "uint32[]",
          "name": "_domains",
          "type": "uint32[]"
        },
        {
          "internalType": "bytes32[]",
          "name": "_addresses",
          "type": "bytes32[]"
        }
      ],
      "name": "enrollRemoteRouters",
      "outputs": [],
      "stateMutability": "nonpayable",
      "type": "function"
    },
    {
      "inputs": [
        {
          "internalType": "uint32",
          "name": "_origin",
          "type": "uint32"
        },
        {
          "internalType": "bytes32",
          "name": "_sender",
          "type": "bytes32"
        },
        {
          "internalType": "bytes",
          "name": "_message",
          "type": "bytes"
        }
      ],
      "name": "handle",
      "outputs": [],
      "stateMutability": "payable",
      "type": "function"
    },
    {
      "inputs": [],
      "name": "hook",
      "outputs": [
        {
          "internalType": "contract IPostDispatchHook",
          "name": "",
          "type": "address"
        }
      ],
      "stateMutability": "view",
      "type": "function"
    },
    {
      "inputs": [],
      "name": "interchainSecurityModule",
      "outputs": [
        {
          "internalType": "contract IInterchainSecurityModule",
          "name": "",
          "type": "address"
        }
      ],
      "stateMutability": "view",
      "type": "function"
    },
    {
      "inputs": [],
      "name": "localDomain",
      "outputs": [
        {
          "internalType": "uint32",
          "name": "",
          "type": "uint32"
        }
      ],
      "stateMutability": "view",
      "type": "function"
    },
    {
      "inputs": [],
      "name": "mailbox",
      "outputs": [
        {
          "internalType": "contract IMailbox",
          "name": "",
          "type": "address"
        }
      ],
      "stateMutability": "view",
      "type": "function"
    },
    {
      "inputs": [],
      "name": "owner",
      "outputs": [
        {
          "internalType": "address",
          "name": "",
          "type": "address"
        }
      ],
      "stateMutability": "view",
      "type": "function"
    },
    {
      "inputs": [
        {
          "internalType": "bytes32",
          "name": "transferId",
          "type": "bytes32"
        }
      ],
      "name": "processTransfer",
      "outputs": [],
      "stateMutability": "payable",
      "type": "function"
    },
    {
      "inputs": [
        {
          "internalType": "bytes32",
          "name": "",
          "type": "bytes32"
        }
      ],
      "name": "processedPayloads",
      "outputs": [
        {
          "internalType": "address",
          "name": "receiver",
          "type": "address"
        },
        {
          "internalType": "address",
          "name": "token",
          "type": "address"
        },
        {
          "internalType": "uint256",
          "name": "amount",
          "type": "uint256"
        },
        {
          "internalType": "bool",
          "name": "isNative",
          "type": "bool"
        },
        {
          "internalType": "bytes",
          "name": "memo",
          "type": "bytes"
        }
      ],
      "stateMutability": "view",
      "type": "function"
    },
    {
      "inputs": [],
      "name": "renounceOwnership",
      "outputs": [],
      "stateMutability": "nonpayable",
      "type": "function"
    },
    {
      "inputs": [
        {
          "internalType": "bytes32",
          "name": "transferId",
          "type": "bytes32"
        }
      ],
      "name": "revealTransfer",
      "outputs": [
        {
          "internalType": "bytes",
          "name": "plaintext",
          "type": "bytes"
        }
      ],
      "stateMutability": "view",
      "type": "function"
    },
    {
      "inputs": [
        {
          "internalType": "uint32",
          "name": "_domain",
          "type": "uint32"
        }
      ],
      "name": "routers",
      "outputs": [
        {
          "internalType": "bytes32",
          "name": "",
          "type": "bytes32"
        }
      ],
      "stateMutability": "view",
      "type": "function"
    },
    {
      "inputs": [
        {
          "internalType": "address",
          "name": "_hook",
          "type": "address"
        }
      ],
      "name": "setHook",
      "outputs": [],
      "stateMutability": "nonpayable",
      "type": "function"
    },
    {
      "inputs": [
        {
          "internalType": "address",
          "name": "_module",
          "type": "address"
        }
      ],
      "name": "setInterchainSecurityModule",
      "outputs": [],
      "stateMutability": "nonpayable",
      "type": "function"
    },
    {
      "inputs": [
        {
          "internalType": "address",
          "name": "newOwner",
          "type": "address"
        }
      ],
      "name": "transferOwnership",
      "outputs": [],
      "stateMutability": "nonpayable",
      "type": "function"
    },
    {
      "inputs": [
        {
          "internalType": "uint32",
          "name": "_domain",
          "type": "uint32"
        }
      ],
      "name": "unenrollRemoteRouter",
      "outputs": [],
      "stateMutability": "nonpayable",
      "type": "function"
    },
    {
      "inputs": [
        {
          "internalType": "uint32[]",
          "name": "_domains",
          "type": "uint32[]"
        }
      ],
      "name": "unenrollRemoteRouters",
      "outputs": [],
      "stateMutability": "nonpayable",
      "type": "function"
    },
    {
      "inputs": [],
      "name": "vaultPublicKey",
      "outputs": [
        {
          "internalType": "bytes32",
          "name": "",
          "type": "bytes32"
        }
      ],
      "stateMutability": "view",
      "type": "function"
    }
  ],
  "bytecode": "0x60c06040523480156200001157600080fd5b5060405162004e7938038062004e79833981810160405281019062000037919062000897565b8080806200004b816200026260201b60201c565b6200008d576040517f08c379a000000000000000000000000000000000000000000000000000000000815260040162000084906200092a565b60405180910390fd5b8173ffffffffffffffffffffffffffffffffffffffff1660808173ffffffffffffffffffffffffffffffffffffffff168152505060805173ffffffffffffffffffffffffffffffffffffffff16638d3638f46040518163ffffffff1660e01b8152600401602060405180830381865afa1580156200010f573d6000803e3d6000fd5b505050506040513d601f19601f820116820180604052508101906200013591906200098d565b63ffffffff1660a08163ffffffff168152505062000159336200028560201b60201c565b505050620001786784e5d10173bb19ef60c01b6200034b60201b60201c565b620001946716157eb1abe1e98560c01b6200034b60201b60201c565b620001b0672b408685d8be061260c01b6200034b60201b60201c565b620001c1336200028560201b60201c565b620001dd674334611bc8ee2e4460c01b6200034b60201b60201c565b620001f9676d9b7728f7f3df9b60c01b6200034b60201b60201c565b6200020b60006200034e60201b60201c565b6200022767d8c4bff32a466df560c01b6200034b60201b60201c565b62000247604051806020016040528060008152506200046860201b60201c565b60cc600060cd60008491905055839190505550505062000dfc565b6000808273ffffffffffffffffffffffffffffffffffffffff163b119050919050565b6000603360009054906101000a900473ffffffffffffffffffffffffffffffffffffffff16905081603360006101000a81548173ffffffffffffffffffffffffffffffffffffffff021916908373ffffffffffffffffffffffffffffffffffffffff1602179055508173ffffffffffffffffffffffffffffffffffffffff168173ffffffffffffffffffffffffffffffffffffffff167f8be0079c531659141344cd1fd0a4f28419497f9722a3daafe3b4186f6b6457e060405160405180910390a35050565b50565b8062000360816200026260201b60201c565b80620003985750600073ffffffffffffffffffffffffffffffffffffffff168173ffffffffffffffffffffffffffffffffffffffff16145b620003da576040517f08c379a0000000000000000000000000000000000000000000000000000000008152600401620003d19062000a35565b60405180910390fd5b620003ea6200067260201b60201c565b81606560006101000a81548173ffffffffffffffffffffffffffffffffffffffff021916908373ffffffffffffffffffffffffffffffffffffffff1602179055507f4eab7b127c764308788622363ad3e9532de3dfba7845bd4f84c125a22544255a826040516200045c919062000a68565b60405180910390a15050565b6000806000620004806020856200070360201b60201c565b905060f8801b816000815181106200049d576200049c62000a85565b5b6020010181815160f81c60f81b169150907effffffffffffffffffffffffffffffffffffffffffffffffffffffffffffff1916908160001a905350607f60f81b81601f81518110620004f457620004f362000a85565b5b6020010181815160f81c60f81b169150907effffffffffffffffffffffffffffffffffffffffffffffffffffffffffffff1916908160001a905350604060f81b81601f815181106200054b576200054a62000a85565b5b6020010181815160f81c60f81b179150907effffffffffffffffffffffffffffffffffffffffffffffffffffffffffffff1916908160001a90535060008073010000000000000000000000000000000000000873ffffffffffffffffffffffffffffffffffffffff1683604051620005c4919062000b2d565b600060405180830381855afa9150503d806000811462000601576040519150601f19603f3d011682016040523d82523d6000602084013e62000606565b606091505b5091509150816200064e576040517f08c379a0000000000000000000000000000000000000000000000000000000008152600401620006459062000b96565b60405180910390fd5b806200065a9062000bf6565b83620006669062000bf6565b94509450505050915091565b62000682620007fb60201b60201c565b73ffffffffffffffffffffffffffffffffffffffff16620006a86200080360201b60201c565b73ffffffffffffffffffffffffffffffffffffffff161462000701576040517f08c379a0000000000000000000000000000000000000000000000000000000008152600401620006f89062000cb6565b60405180910390fd5b565b606060008073010000000000000000000000000000000000000173ffffffffffffffffffffffffffffffffffffffff1685856040516020016200074892919062000d56565b60405160208183030381529060405260405162000766919062000b2d565b600060405180830381855afa9150503d8060008114620007a3576040519150601f19603f3d011682016040523d82523d6000602084013e620007a8565b606091505b509150915081620007f0576040517f08c379a0000000000000000000000000000000000000000000000000000000008152600401620007e79062000dda565b60405180910390fd5b809250505092915050565b600033905090565b6000603360009054906101000a900473ffffffffffffffffffffffffffffffffffffffff16905090565b600080fd5b600073ffffffffffffffffffffffffffffffffffffffff82169050919050565b60006200085f8262000832565b9050919050565b620008718162000852565b81146200087d57600080fd5b50565b600081519050620008918162000866565b92915050565b600060208284031215620008b057620008af6200082d565b5b6000620008c08482850162000880565b91505092915050565b600082825260208201905092915050565b7f4d61696c626f78436c69656e743a20696e76616c6964206d61696c626f780000600082015250565b600062000912601e83620008c9565b91506200091f82620008da565b602082019050919050565b60006020820190508181036000830152620009458162000903565b9050919050565b600063ffffffff82169050919050565b62000967816200094c565b81146200097357600080fd5b50565b60008151905062000987816200095c565b92915050565b600060208284031215620009a657620009a56200082d565b5b6000620009b68482850162000976565b91505092915050565b7f4d61696c626f78436c69656e743a20696e76616c696420636f6e74726163742060008201527f73657474696e6700000000000000000000000000000000000000000000000000602082015250565b600062000a1d602783620008c9565b915062000a2a82620009bf565b604082019050919050565b6000602082019050818103600083015262000a508162000a0e565b9050919050565b62000a628162000852565b82525050565b600060208201905062000a7f600083018462000a57565b92915050565b7f4e487b7100000000000000000000000000000000000000000000000000000000600052603260045260246000fd5b600081519050919050565b600081905092915050565b60005b8381101562000aea57808201518184015260208101905062000acd565b60008484015250505050565b600062000b038262000ab4565b62000b0f818562000abf565b935062000b2181856020860162000aca565b80840191505092915050565b600062000b3b828462000af6565b915081905092915050565b7f67656e206375727665323535313920706b3a206661696c656400000000000000600082015250565b600062000b7e601983620008c9565b915062000b8b8262000b46565b602082019050919050565b6000602082019050818103600083015262000bb18162000b6f565b9050919050565b6000819050602082019050919050565b6000819050919050565b600062000be0825162000bc8565b80915050919050565b600082821b905092915050565b600062000c038262000ab4565b8262000c0f8462000bb8565b905062000c1c8162000bd2565b9250602082101562000c5f5762000c5a7fffffffffffffffffffffffffffffffffffffffffffffffffffffffffffffffff8360200360080262000be9565b831692505b5050919050565b7f4f776e61626c653a2063616c6c6572206973206e6f7420746865206f776e6572600082015250565b600062000c9e602083620008c9565b915062000cab8262000c66565b602082019050919050565b6000602082019050818103600083015262000cd18162000c8f565b9050919050565b6000819050919050565b62000ced8162000cd8565b82525050565b600082825260208201905092915050565b6000601f19601f8301169050919050565b600062000d228262000ab4565b62000d2e818562000cf3565b935062000d4081856020860162000aca565b62000d4b8162000d04565b840191505092915050565b600060408201905062000d6d600083018562000ce2565b818103602083015262000d81818462000d15565b90509392505050565b7f72616e646f6d42797465733a206661696c656400000000000000000000000000600082015250565b600062000dc2601383620008c9565b915062000dcf8262000d8a565b602082019050919050565b6000602082019050818103600083015262000df58162000db3565b9050919050565b60805160a05161404962000e306000396000611065015260008181610ed6015281816113390152611f0401526140496000f3fe6080604052600436106101355760003560e01c80638d3638f4116100ab578063d5438eae1161006f578063d5438eae146103e9578063d7d7f4a614610414578063de523cf314610455578063e9198bf914610480578063efae508a146104a9578063f2fde38b146104d257610135565b80638d3638f4146103025780638da5cb5b1461032d57806393c4484714610358578063b224999214610383578063b49c53a7146103c057610135565b80633dfd3873116100fd5780633dfd387314610227578063440df4f41461025057806356d5d4751461027b578063715018a61461029757806371a15b38146102ae5780637f5a7c7b146102d757610135565b80630e72cc061461013a57806316cfbf41146101635780632ead72f61461018e57806339056a87146101cb578063393a9a8e1461020b575b600080fd5b34801561014657600080fd5b50610161600480360381019061015c9190612675565b6104fb565b005b34801561016f57600080fd5b506101786105ff565b60405161018591906126bb565b60405180910390f35b34801561019a57600080fd5b506101b560048036038101906101b09190612712565b610645565b6040516101c291906126bb565b60405180910390f35b3480156101d757600080fd5b506101f260048036038101906101ed919061276b565b61066e565b60405161020294939291906128ec565b60405180910390f35b6102256004803603810190610220919061276b565b61079e565b005b34801561023357600080fd5b5061024e60048036038101906102499190612675565b610dbf565b005b34801561025c57600080fd5b50610265610ec3565b60405161027291906129f6565b60405180910390f35b61029560048036038101906102909190612a7d565b610ed4565b005b3480156102a357600080fd5b506102ac610fc4565b005b3480156102ba57600080fd5b506102d560048036038101906102d09190612b47565b610fd8565b005b3480156102e357600080fd5b506102ec61103d565b6040516102f99190612bf3565b60405180910390f35b34801561030e57600080fd5b50610317611063565b6040516103249190612c0e565b60405180910390f35b34801561033957600080fd5b50610342611087565b60405161034f9190612c38565b60405180910390f35b34801561036457600080fd5b5061036d6110b1565b60405161037a9190612ca8565b60405180910390f35b34801561038f57600080fd5b506103aa60048036038101906103a5919061276b565b6110ea565b6040516103b79190612d14565b60405180910390f35b3480156103cc57600080fd5b506103e760048036038101906103e29190612d36565b611321565b005b3480156103f557600080fd5b506103fe611337565b60405161040b9190612d97565b60405180910390f35b34801561042057600080fd5b5061043b6004803603810190610436919061276b565b61135b565b60405161044c959493929190612dcb565b60405180910390f35b34801561046157600080fd5b5061046a611466565b6040516104779190612e46565b60405180910390f35b34801561048c57600080fd5b506104a760048036038101906104a29190612eb7565b611490565b005b3480156104b557600080fd5b506104d060048036038101906104cb9190612712565b611559565b005b3480156104de57600080fd5b506104f960048036038101906104f49190612675565b61156d565b005b80610505816115f0565b8061053c5750600073ffffffffffffffffffffffffffffffffffffffff168173ffffffffffffffffffffffffffffffffffffffff16145b61057b576040517f08c379a000000000000000000000000000000000000000000000000000000000815260040161057290612faa565b60405180910390fd5b610583611613565b81606660006101000a81548173ffffffffffffffffffffffffffffffffffffffff021916908373ffffffffffffffffffffffffffffffffffffffff1602179055507fc47cbcc588c67679e52261c45cc315e56562f8d0ccaba16facb9093ff9498799826040516105f39190612c38565b60405180910390a15050565b6000610615673da45563d3573e1e60c01b611691565b610629672ac75f8ebeda3bce60c01b611691565b61063d672039db9f2ba092e560c01b611691565b60cc54905090565b6000806106628363ffffffff16609761169490919063ffffffff16565b91505080915050919050565b60ca6020528060005260406000206000915090508060000160009054906101000a900463ffffffff169080600101549080600201604051806060016040529081600082015481526020016001820160009054906101000a900460801b6fffffffffffffffffffffffffffffffff19166fffffffffffffffffffffffffffffffff1916815260200160028201805461070490612ff9565b80601f016020809104026020016040519081016040528092919081815260200182805461073090612ff9565b801561077d5780601f106107525761010080835404028352916020019161077d565b820191906000526020600020905b81548152906001019060200180831161076057829003601f168201915b505050505081525050908060050160009054906101000a900460ff16905084565b6107b2672816380da3ab4ad660c01b611691565b6107ba611613565b6107ce6712b34318d2ba180b60c01b611691565b6107e267450926130962109360c01b611691565b6107f667accc86b378a0675e60c01b611691565b61080a6758794daad87b86c060c01b611691565b61081e6707098819af62b46c60c01b611691565b60003414610861576040517f08c379a000000000000000000000000000000000000000000000000000000000815260040161085890613076565b60405180910390fd5b61087567531b3c51714a989860c01b611691565b61088967c49d7f5c453e081060c01b611691565b61089d67f410a7a14727308e60c01b611691565b600060ca600083815260200190815260200160002090506108c867b2ab1a8d396f7c2d60c01b611691565b6108db66b8e8cbb8d2cda360c01b611691565b6108ef67e80e2f25ab306e8a60c01b611691565b600081600201600201805461090390612ff9565b905003610945576040517f08c379a000000000000000000000000000000000000000000000000000000000815260040161093c906130e2565b60405180910390fd5b61095967236a629f6adea34b60c01b611691565b61096d67b60b00236bfe620d60c01b611691565b6109816766c4b7c25b443fa160c01b611691565b610995670b52df7eb9f234be60c01b611691565b8060050160009054906101000a900460ff16156109e7576040517f08c379a00000000000000000000000000000000000000000000000000000000081526004016109de9061314e565b60405180910390fd5b6109fb67b8050e817038df7560c01b611691565b610a0f67e3812dc2118b04a160c01b611691565b610a23677e7ec45d4624c2fd60c01b611691565b6000610b1582600201604051806060016040529081600082015481526020016001820160009054906101000a900460801b6fffffffffffffffffffffffffffffffff19166fffffffffffffffffffffffffffffffff19168152602001600282018054610a8e90612ff9565b80601f0160208091040260200160405190810160405280929190818152602001828054610aba90612ff9565b8015610b075780601f10610adc57610100808354040283529160200191610b07565b820191906000526020600020905b815481529060010190602001808311610aea57829003601f168201915b5050505050815250506116bb565b806020019051810190610b2891906133ae565b9050610b3e67df9e092bf524534e60c01b611691565b60018260050160006101000a81548160ff021916908315150217905550610b6f67da97c6440d09a6fb60c01b611691565b8060cb600085815260200190815260200160002060008201518160000160006101000a81548173ffffffffffffffffffffffffffffffffffffffff021916908373ffffffffffffffffffffffffffffffffffffffff16021790555060208201518160010160006101000a81548173ffffffffffffffffffffffffffffffffffffffff021916908373ffffffffffffffffffffffffffffffffffffffff1602179055506040820151816002015560608201518160030160006101000a81548160ff0219169083151502179055506080820151816004019081610c509190613599565b50905050610c6867211375569552110860c01b611691565b610c7c674c6a0d7bd6a8ed1860c01b611691565b610cd38260000160009054906101000a900463ffffffff166000858460000151856020015186604001518760600151604051602001610cbf95949392919061366b565b6040516020818303038152906040526117a1565b50610ce8675671ad2e4bc1a8ee60c01b611691565b610cfc679f3957a5c1237efe60c01b611691565b8160000160009054906101000a900463ffffffff1663ffffffff16837f5f3b0a7ed66f2c9f7cd167fb7c46121485d5fdccc3547cea6ce8b777a5d8f3f460405160405180910390a3610d586721583000fddf2e8560c01b611691565b610d6c672093d9c354cc559e60c01b611691565b827f69fdeba2b39f11dc52600ddb72b8cfa1744a22da03e1f021b4765b668c4f67498260000151836020015184604001518560600151604051610db294939291906136be565b60405180910390a2505050565b80610dc9816115f0565b80610e005750600073ffffffffffffffffffffffffffffffffffffffff168173ffffffffffffffffffffffffffffffffffffffff16145b610e3f576040517f08c379a0000000000000000000000000000000000000000000000000000000008152600401610e3690612faa565b60405180910390fd5b610e47611613565b81606560006101000a81548173ffffffffffffffffffffffffffffffffffffffff021916908373ffffffffffffffffffffffffffffffffffffffff1602179055507f4eab7b127c764308788622363ad3e9532de3dfba7845bd4f84c125a22544255a82604051610eb79190612c38565b60405180910390a15050565b6060610ecf60976117ea565b905090565b7f000000000000000000000000000000000000000000000000000000000000000073ffffffffffffffffffffffffffffffffffffffff163373ffffffffffffffffffffffffffffffffffffffff1614610f62576040517f08c379a0000000000000000000000000000000000000000000000000000000008152600401610f5990613775565b60405180910390fd5b6000610f6d856118ad565b9050838114610fb1576040517f08c379a0000000000000000000000000000000000000000000000000000000008152600401610fa890613807565b60405180910390fd5b610fbd8585858561192a565b5050505050565b610fcc611613565b610fd66000611b62565b565b610fe0611613565b600082829050905060005b818110156110375761102384848381811061100957611008613827565b5b905060200201602081019061101e9190612712565b611c28565b6001816110309190613885565b9050610feb565b50505050565b606560009054906101000a900473ffffffffffffffffffffffffffffffffffffffff1681565b7f000000000000000000000000000000000000000000000000000000000000000081565b6000603360009054906101000a900473ffffffffffffffffffffffffffffffffffffffff16905090565b6040518060400160405280600681526020017f31302e312e33000000000000000000000000000000000000000000000000000081525081565b60606111006707bcb70e43ee135060c01b611691565b611108611613565b61111c67bf5df703250fbc7d60c01b611691565b61113067239e7b15cdee574960c01b611691565b61114467dd4d833ef37b7f9d60c01b611691565b61115867a750b31c770dc3f360c01b611691565b600060ca60008481526020019081526020016000209050611183670c42ee61dc46230560c01b611691565b61119767cea0865d2938efac60c01b611691565b6111ab67b9e6502f406335a860c01b611691565b60008160020160020180546111bf90612ff9565b905003611201576040517f08c379a00000000000000000000000000000000000000000000000000000000081526004016111f8906130e2565b60405180910390fd5b611215673b26bd007d73856460c01b611691565b6112296765a6c9f9cb8ec45960c01b611691565b61131981600201604051806060016040529081600082015481526020016001820160009054906101000a900460801b6fffffffffffffffffffffffffffffffff19166fffffffffffffffffffffffffffffffff1916815260200160028201805461129290612ff9565b80601f01602080910402602001604051908101604052809291908181526020018280546112be90612ff9565b801561130b5780601f106112e05761010080835404028352916020019161130b565b820191906000526020600020905b8154815290600101906020018083116112ee57829003601f168201915b5050505050815250506116bb565b915050919050565b611329611613565b6113338282611c90565b5050565b7f000000000000000000000000000000000000000000000000000000000000000081565b60cb6020528060005260406000206000915090508060000160009054906101000a900473ffffffffffffffffffffffffffffffffffffffff16908060010160009054906101000a900473ffffffffffffffffffffffffffffffffffffffff16908060020154908060030160009054906101000a900460ff16908060040180546113e390612ff9565b80601f016020809104026020016040519081016040528092919081815260200182805461140f90612ff9565b801561145c5780601f106114315761010080835404028352916020019161145c565b820191906000526020600020905b81548152906001019060200180831161143f57829003601f168201915b5050505050905085565b6000606660009054906101000a900473ffffffffffffffffffffffffffffffffffffffff16905090565b611498611613565b8181905084849050146114e0576040517f08c379a00000000000000000000000000000000000000000000000000000000081526004016114d790613905565b60405180910390fd5b600084849050905060005b818110156115515761153d86868381811061150957611508613827565b5b905060200201602081019061151e9190612712565b85858481811061153157611530613827565b5b90506020020135611c90565b60018161154a9190613885565b90506114eb565b505050505050565b611561611613565b61156a81611c28565b50565b611575611613565b600073ffffffffffffffffffffffffffffffffffffffff168173ffffffffffffffffffffffffffffffffffffffff16036115e4576040517f08c379a00000000000000000000000000000000000000000000000000000000081526004016115db90613997565b60405180910390fd5b6115ed81611b62565b50565b6000808273ffffffffffffffffffffffffffffffffffffffff163b119050919050565b61161b611cb0565b73ffffffffffffffffffffffffffffffffffffffff16611639611087565b73ffffffffffffffffffffffffffffffffffffffff161461168f576040517f08c379a000000000000000000000000000000000000000000000000000000000815260040161168690613a03565b60405180910390fd5b565b50565b6000806116b08360001b85600001611cb890919063ffffffff16565b915091509250929050565b60606116d167fe66e3e33d4cca4160c01b611691565b6116e567e4826df89d818fac60c01b611691565b6116f967feff7a662a6f6a3460c01b611691565b600061170b836000015160cd54611d07565b905061172167843eb91a3740f05160c01b611691565b61173567113c91d2acd18a4860c01b611691565b600083602001516fffffffffffffffffffffffffffffffff19169050611765679ccf128c564e6b0660c01b611691565b611779676640c12f33dcab2860c01b611691565b6117988282866040015160405180602001604052806000815250611dff565b92505050919050565b60006117e184848460405180602001604052806000815250606560009054906101000a900473ffffffffffffffffffffffffffffffffffffffff16611ef4565b90509392505050565b606060006117f783611fb3565b9050805167ffffffffffffffff81111561181457611813613173565b5b6040519080825280602002602001820160405280156118425781602001602082028036833780820191505090505b50915060005b81518110156118a65781818151811061186457611863613827565b5b602002602001015183828151811061187f5761187e613827565b5b602002602001019063ffffffff16908163ffffffff16815250508080600101915050611848565b5050919050565b60008060006118cc8463ffffffff16609761169490919063ffffffff16565b9150915081156118e0578092505050611925565b6118e98461206a565b6040517f08c379a000000000000000000000000000000000000000000000000000000000815260040161191c9190612ca8565b60405180910390fd5b919050565b61193e677e1ffa6421ac039060c01b611691565b6119526754c33968148b27d860c01b611691565b6119666793bf8d584a0f6ec260c01b611691565b60008083838101906119789190613aa2565b915091506119906745f1ff8fc6be8d2d60c01b611691565b6119a467a17ffc6dbbbb44a160c01b611691565b6000818060200190518101906119ba9190613bbf565b90506119d0674007703058f65f0060c01b611691565b6119e467b7e378310ef9575460c01b611691565b600060ca60008581526020019081526020016000209050611a0f678ec6a0c809e5b52160c01b611691565b878160000160006101000a81548163ffffffff021916908363ffffffff160217905550611a4667244f549ff95a5b3460c01b611691565b868160010181905550611a63677d12878fbe21134360c01b611691565b81816002016000820151816000015560208201518160010160006101000a8154816fffffffffffffffffffffffffffffffff021916908360801c02179055506040820151816002019081611ab79190613599565b50905050611acf67463332265cb5a92c60c01b611691565b60008160050160006101000a81548160ff021916908315150217905550611b0067c941ae641b052d0960c01b611691565b611b1467c9841a6fb46226fb60c01b611691565b868863ffffffff16857f7c2ee8f2903d90d716138ed95145db9f95eb00dba1fd4d096942ecd8294643df8560400151604051611b509190612d14565b60405180910390a45050505050505050565b6000603360009054906101000a900473ffffffffffffffffffffffffffffffffffffffff16905081603360006101000a81548173ffffffffffffffffffffffffffffffffffffffff021916908373ffffffffffffffffffffffffffffffffffffffff1602179055508173ffffffffffffffffffffffffffffffffffffffff168173ffffffffffffffffffffffffffffffffffffffff167f8be0079c531659141344cd1fd0a4f28419497f9722a3daafe3b4186f6b6457e060405160405180910390a35050565b611c428163ffffffff1660976120a190919063ffffffff16565b611c4b8261206a565b90611c8c576040517f08c379a0000000000000000000000000000000000000000000000000000000008152600401611c839190612ca8565b60405180910390fd5b5050565b611cac8263ffffffff168260976120c49092919063ffffffff16565b5050565b600033905090565b60008060008460020160008581526020019081526020016000205490506000801b8103611cf757611ce985856120e5565b6000801b9250925050611d00565b60018192509250505b9250929050565b600080600073010000000000000000000000000000000000000273ffffffffffffffffffffffffffffffffffffffff168585604051602001611d4a929190613c38565b604051602081830303815290604052604051611d669190613c9d565b600060405180830381855afa9150503d8060008114611da1576040519150601f19603f3d011682016040523d82523d6000602084013e611da6565b606091505b509150915081611deb576040517f08c379a0000000000000000000000000000000000000000000000000000000008152600401611de290613d00565b60405180910390fd5b80611df590613d45565b9250505092915050565b606060008073010000000000000000000000000000000000000473ffffffffffffffffffffffffffffffffffffffff1687878787604051602001611e469493929190613dac565b604051602081830303815290604052604051611e629190613c9d565b600060405180830381855afa9150503d8060008114611e9d576040519150601f19603f3d011682016040523d82523d6000602084013e611ea2565b606091505b509150915081611ee7576040517f08c379a0000000000000000000000000000000000000000000000000000000008152600401611ede90613e4b565b60405180910390fd5b8092505050949350505050565b600080611f00876118ad565b90507f000000000000000000000000000000000000000000000000000000000000000073ffffffffffffffffffffffffffffffffffffffff166310b83dc08789848989896040518763ffffffff1660e01b8152600401611f64959493929190613e6b565b60206040518083038185885af1158015611f82573d6000803e3d6000fd5b50505050506040513d601f19601f82011682018060405250810190611fa79190613ecc565b91505095945050505050565b60606000611fc383600001612105565b90508067ffffffffffffffff811115611fdf57611fde613173565b5b60405190808252806020026020018201604052801561200d5781602001602082028036833780820191505090505b50915060005b8181101561206357612034818560000160000161211a90919063ffffffff16565b60001c83828151811061204a57612049613827565b5b6020026020010181815250508080600101915050612013565b5050919050565b606061207b8263ffffffff16612131565b60405160200161208b9190613f5b565b6040516020818303038152906040529050919050565b60006120bc8260001b846000016121ff90919063ffffffff16565b905092915050565b6120df8260001b82856000016122389092919063ffffffff16565b50505050565b60006120fd828460000161227390919063ffffffff16565b905092915050565b60006121138260000161228a565b9050919050565b6000612129836000018361229f565b905092915050565b606060006001612140846122ca565b01905060008167ffffffffffffffff81111561215f5761215e613173565b5b6040519080825280601f01601f1916602001820160405280156121915781602001600182028036833780820191505090505b509050600082602001820190505b6001156121f4578080600190039150507f3031323334353637383961626364656600000000000000000000000000000000600a86061a8153600a85816121e8576121e7613f81565b5b0494506000850361219f575b819350505050919050565b600082600201600083815260200190815260200160002060009055612230828460000161241d90919063ffffffff16565b905092915050565b6000818460020160008581526020019081526020016000208190555061226a838560000161243490919063ffffffff16565b90509392505050565b6000612282836000018361244b565b905092915050565b60006122988260000161246e565b9050919050565b60008260000182815481106122b7576122b6613827565b5b9060005260206000200154905092915050565b600080600090507a184f03e93ff9f4daa797ed6e38ed64bf6a1f0100000000000000008310612328577a184f03e93ff9f4daa797ed6e38ed64bf6a1f010000000000000000838161231e5761231d613f81565b5b0492506040810190505b6d04ee2d6d415b85acef81000000008310612365576d04ee2d6d415b85acef8100000000838161235b5761235a613f81565b5b0492506020810190505b662386f26fc10000831061239457662386f26fc10000838161238a57612389613f81565b5b0492506010810190505b6305f5e10083106123bd576305f5e10083816123b3576123b2613f81565b5b0492506008810190505b61271083106123e25761271083816123d8576123d7613f81565b5b0492506004810190505b6064831061240557606483816123fb576123fa613f81565b5b0492506002810190505b600a8310612414576001810190505b80915050919050565b600061242c836000018361247f565b905092915050565b60006124438360000183612593565b905092915050565b600080836001016000848152602001908152602001600020541415905092915050565b600081600001805490509050919050565b600080836001016000848152602001908152602001600020549050600081146125875760006001826124b19190613fb0565b90506000600186600001805490506124c99190613fb0565b90508181146125385760008660000182815481106124ea576124e9613827565b5b906000526020600020015490508087600001848154811061250e5761250d613827565b5b90600052602060002001819055508387600101600083815260200190815260200160002081905550505b8560000180548061254c5761254b613fe4565b5b60019003818190600052602060002001600090559055856001016000868152602001908152602001600020600090556001935050505061258d565b60009150505b92915050565b600061259f838361244b565b6125f85782600001829080600181540180825580915050600190039060005260206000200160009091909190915055826000018054905083600101600084815260200190815260200160002081905550600190506125fd565b600090505b92915050565b6000604051905090565b600080fd5b600080fd5b600073ffffffffffffffffffffffffffffffffffffffff82169050919050565b600061264282612617565b9050919050565b61265281612637565b811461265d57600080fd5b50565b60008135905061266f81612649565b92915050565b60006020828403121561268b5761268a61260d565b5b600061269984828501612660565b91505092915050565b6000819050919050565b6126b5816126a2565b82525050565b60006020820190506126d060008301846126ac565b92915050565b600063ffffffff82169050919050565b6126ef816126d6565b81146126fa57600080fd5b50565b60008135905061270c816126e6565b92915050565b6000602082840312156127285761272761260d565b5b6000612736848285016126fd565b91505092915050565b612748816126a2565b811461275357600080fd5b50565b6000813590506127658161273f565b92915050565b6000602082840312156127815761278061260d565b5b600061278f84828501612756565b91505092915050565b6127a1816126d6565b82525050565b6127b0816126a2565b82525050565b60007fffffffffffffffffffffffffffffffff0000000000000000000000000000000082169050919050565b6127eb816127b6565b82525050565b600081519050919050565b600082825260208201905092915050565b60005b8381101561282b578082015181840152602081019050612810565b60008484015250505050565b6000601f19601f8301169050919050565b6000612853826127f1565b61285d81856127fc565b935061286d81856020860161280d565b61287681612837565b840191505092915050565b600060608301600083015161289960008601826127a7565b5060208301516128ac60208601826127e2565b50604083015184820360408601526128c48282612848565b9150508091505092915050565b60008115159050919050565b6128e6816128d1565b82525050565b60006080820190506129016000830187612798565b61290e60208301866126ac565b81810360408301526129208185612881565b905061292f60608301846128dd565b95945050505050565b600081519050919050565b600082825260208201905092915050565b6000819050602082019050919050565b61296d816126d6565b82525050565b600061297f8383612964565b60208301905092915050565b6000602082019050919050565b60006129a382612938565b6129ad8185612943565b93506129b883612954565b8060005b838110156129e95781516129d08882612973565b97506129db8361298b565b9250506001810190506129bc565b5085935050505092915050565b60006020820190508181036000830152612a108184612998565b905092915050565b600080fd5b600080fd5b600080fd5b60008083601f840112612a3d57612a3c612a18565b5b8235905067ffffffffffffffff811115612a5a57612a59612a1d565b5b602083019150836001820283011115612a7657612a75612a22565b5b9250929050565b60008060008060608587031215612a9757612a9661260d565b5b6000612aa5878288016126fd565b9450506020612ab687828801612756565b935050604085013567ffffffffffffffff811115612ad757612ad6612612565b5b612ae387828801612a27565b925092505092959194509250565b60008083601f840112612b0757612b06612a18565b5b8235905067ffffffffffffffff811115612b2457612b23612a1d565b5b602083019150836020820283011115612b4057612b3f612a22565b5b9250929050565b60008060208385031215612b5e57612b5d61260d565b5b600083013567ffffffffffffffff811115612b7c57612b7b612612565b5b612b8885828601612af1565b92509250509250929050565b6000819050919050565b6000612bb9612bb4612baf84612617565b612b94565b612617565b9050919050565b6000612bcb82612b9e565b9050919050565b6000612bdd82612bc0565b9050919050565b612bed81612bd2565b82525050565b6000602082019050612c086000830184612be4565b92915050565b6000602082019050612c236000830184612798565b92915050565b612c3281612637565b82525050565b6000602082019050612c4d6000830184612c29565b92915050565b600081519050919050565b600082825260208201905092915050565b6000612c7a82612c53565b612c848185612c5e565b9350612c9481856020860161280d565b612c9d81612837565b840191505092915050565b60006020820190508181036000830152612cc28184612c6f565b905092915050565b600082825260208201905092915050565b6000612ce6826127f1565b612cf08185612cca565b9350612d0081856020860161280d565b612d0981612837565b840191505092915050565b60006020820190508181036000830152612d2e8184612cdb565b905092915050565b60008060408385031215612d4d57612d4c61260d565b5b6000612d5b858286016126fd565b9250506020612d6c85828601612756565b9150509250929050565b6000612d8182612bc0565b9050919050565b612d9181612d76565b82525050565b6000602082019050612dac6000830184612d88565b92915050565b6000819050919050565b612dc581612db2565b82525050565b600060a082019050612de06000830188612c29565b612ded6020830187612c29565b612dfa6040830186612dbc565b612e0760608301856128dd565b8181036080830152612e198184612cdb565b90509695505050505050565b6000612e3082612bc0565b9050919050565b612e4081612e25565b82525050565b6000602082019050612e5b6000830184612e37565b92915050565b60008083601f840112612e7757612e76612a18565b5b8235905067ffffffffffffffff811115612e9457612e93612a1d565b5b602083019150836020820283011115612eb057612eaf612a22565b5b9250929050565b60008060008060408587031215612ed157612ed061260d565b5b600085013567ffffffffffffffff811115612eef57612eee612612565b5b612efb87828801612af1565b9450945050602085013567ffffffffffffffff811115612f1e57612f1d612612565b5b612f2a87828801612e61565b925092505092959194509250565b7f4d61696c626f78436c69656e743a20696e76616c696420636f6e74726163742060008201527f73657474696e6700000000000000000000000000000000000000000000000000602082015250565b6000612f94602783612c5e565b9150612f9f82612f38565b604082019050919050565b60006020820190508181036000830152612fc381612f87565b9050919050565b7f4e487b7100000000000000000000000000000000000000000000000000000000600052602260045260246000fd5b6000600282049050600182168061301157607f821691505b60208210810361302457613023612fca565b5b50919050565b7f6e6f206e617469766520676173207061796d656e7420737570706f7274656400600082015250565b6000613060601f83612c5e565b915061306b8261302a565b602082019050919050565b6000602082019050818103600083015261308f81613053565b9050919050565b7f7472616e73666572206d697373696e6700000000000000000000000000000000600082015250565b60006130cc601083612c5e565b91506130d782613096565b602082019050919050565b600060208201905081810360008301526130fb816130bf565b9050919050565b7f616c72656164792070726f636573736564000000000000000000000000000000600082015250565b6000613138601183612c5e565b915061314382613102565b602082019050919050565b600060208201905081810360008301526131678161312b565b9050919050565b600080fd5b7f4e487b7100000000000000000000000000000000000000000000000000000000600052604160045260246000fd5b6131ab82612837565b810181811067ffffffffffffffff821117156131ca576131c9613173565b5b80604052505050565b60006131dd612603565b90506131e982826131a2565b919050565b600080fd5b60008151905061320281612649565b92915050565b61321181612db2565b811461321c57600080fd5b50565b60008151905061322e81613208565b92915050565b61323d816128d1565b811461324857600080fd5b50565b60008151905061325a81613234565b92915050565b600080fd5b600067ffffffffffffffff8211156132805761327f613173565b5b61328982612837565b9050602081019050919050565b60006132a96132a484613265565b6131d3565b9050828152602081018484840111156132c5576132c4613260565b5b6132d084828561280d565b509392505050565b600082601f8301126132ed576132ec612a18565b5b81516132fd848260208601613296565b91505092915050565b600060a0828403121561331c5761331b61316e565b5b61332660a06131d3565b90506000613336848285016131f3565b600083015250602061334a848285016131f3565b602083015250604061335e8482850161321f565b60408301525060606133728482850161324b565b606083015250608082015167ffffffffffffffff811115613396576133956131ee565b5b6133a2848285016132d8565b60808301525092915050565b6000602082840312156133c4576133c361260d565b5b600082015167ffffffffffffffff8111156133e2576133e1612612565b5b6133ee84828501613306565b91505092915050565b60008190508160005260206000209050919050565b60006020601f8301049050919050565b600082821b905092915050565b6000600883026134597fffffffffffffffffffffffffffffffffffffffffffffffffffffffffffffffff8261341c565b613463868361341c565b95508019841693508086168417925050509392505050565b600061349661349161348c84612db2565b612b94565b612db2565b9050919050565b6000819050919050565b6134b08361347b565b6134c46134bc8261349d565b848454613429565b825550505050565b600090565b6134d96134cc565b6134e48184846134a7565b505050565b5b81811015613508576134fd6000826134d1565b6001810190506134ea565b5050565b601f82111561354d5761351e816133f7565b6135278461340c565b81016020851015613536578190505b61354a6135428561340c565b8301826134e9565b50505b505050565b600082821c905092915050565b600061357060001984600802613552565b1980831691505092915050565b6000613589838361355f565b9150826002028217905092915050565b6135a2826127f1565b67ffffffffffffffff8111156135bb576135ba613173565b5b6135c58254612ff9565b6135d082828561350c565b600060209050601f83116001811461360357600084156135f1578287015190505b6135fb858261357d565b865550613663565b601f198416613611866133f7565b60005b8281101561363957848901518255600182019150602085019450602081019050613614565b868310156136565784890151613652601f89168261355f565b8355505b6001600288020188555050505b505050505050565b600060a08201905061368060008301886126ac565b61368d6020830187612c29565b61369a6040830186612c29565b6136a76060830185612dbc565b6136b460808301846128dd565b9695505050505050565b60006080820190506136d36000830187612c29565b6136e06020830186612c29565b6136ed6040830185612dbc565b6136fa60608301846128dd565b95945050505050565b7f4d61696c626f78436c69656e743a2073656e646572206e6f74206d61696c626f60008201527f7800000000000000000000000000000000000000000000000000000000000000602082015250565b600061375f602183612c5e565b915061376a82613703565b604082019050919050565b6000602082019050818103600083015261378e81613752565b9050919050565b7f456e726f6c6c656420726f7574657220646f6573206e6f74206d61746368207360008201527f656e646572000000000000000000000000000000000000000000000000000000602082015250565b60006137f1602583612c5e565b91506137fc82613795565b604082019050919050565b60006020820190508181036000830152613820816137e4565b9050919050565b7f4e487b7100000000000000000000000000000000000000000000000000000000600052603260045260246000fd5b7f4e487b7100000000000000000000000000000000000000000000000000000000600052601160045260246000fd5b600061389082612db2565b915061389b83612db2565b92508282019050808211156138b3576138b2613856565b5b92915050565b7f216c656e67746800000000000000000000000000000000000000000000000000600082015250565b60006138ef600783612c5e565b91506138fa826138b9565b602082019050919050565b6000602082019050818103600083015261391e816138e2565b9050919050565b7f4f776e61626c653a206e6577206f776e657220697320746865207a65726f206160008201527f6464726573730000000000000000000000000000000000000000000000000000602082015250565b6000613981602683612c5e565b915061398c82613925565b604082019050919050565b600060208201905081810360008301526139b081613974565b9050919050565b7f4f776e61626c653a2063616c6c6572206973206e6f7420746865206f776e6572600082015250565b60006139ed602083612c5e565b91506139f8826139b7565b602082019050919050565b60006020820190508181036000830152613a1c816139e0565b9050919050565b82818337600083830152505050565b6000613a45613a4084613265565b6131d3565b905082815260208101848484011115613a6157613a60613260565b5b613a6c848285613a23565b509392505050565b600082601f830112613a8957613a88612a18565b5b8135613a99848260208601613a32565b91505092915050565b60008060408385031215613ab957613ab861260d565b5b6000613ac785828601612756565b925050602083013567ffffffffffffffff811115613ae857613ae7612612565b5b613af485828601613a74565b9150509250929050565b600081519050613b0d8161273f565b92915050565b613b1c816127b6565b8114613b2757600080fd5b50565b600081519050613b3981613b13565b92915050565b600060608284031215613b5557613b5461316e565b5b613b5f60606131d3565b90506000613b6f84828501613afe565b6000830152506020613b8384828501613b2a565b602083015250604082015167ffffffffffffffff811115613ba757613ba66131ee565b5b613bb3848285016132d8565b60408301525092915050565b600060208284031215613bd557613bd461260d565b5b600082015167ffffffffffffffff811115613bf357613bf2612612565b5b613bff84828501613b3f565b91505092915050565b6000613c13826126a2565b9050919050565b613c2381613c08565b82525050565b613c3281613c08565b82525050565b6000604082019050613c4d6000830185613c1a565b613c5a6020830184613c29565b9392505050565b600081905092915050565b6000613c77826127f1565b613c818185613c61565b9350613c9181856020860161280d565b80840191505092915050565b6000613ca98284613c6c565b915081905092915050565b7f64657269766553796d6d65747269634b65793a206661696c6564000000000000600082015250565b6000613cea601a83612c5e565b9150613cf582613cb4565b602082019050919050565b60006020820190508181036000830152613d1981613cdd565b9050919050565b6000819050602082019050919050565b6000613d3c82516126a2565b80915050919050565b6000613d50826127f1565b82613d5a84613d20565b9050613d6581613d30565b92506020821015613da557613da07fffffffffffffffffffffffffffffffffffffffffffffffffffffffffffffffff8360200360080261341c565b831692505b5050919050565b6000608082019050613dc160008301876126ac565b613dce60208301866126ac565b8181036040830152613de08185612cdb565b90508181036060830152613df48184612cdb565b905095945050505050565b7f646563727970743a206661696c65640000000000000000000000000000000000600082015250565b6000613e35600f83612c5e565b9150613e4082613dff565b602082019050919050565b60006020820190508181036000830152613e6481613e28565b9050919050565b600060a082019050613e806000830188612798565b613e8d60208301876126ac565b8181036040830152613e9f8186612cdb565b90508181036060830152613eb38185612cdb565b9050613ec26080830184612be4565b9695505050505050565b600060208284031215613ee257613ee161260d565b5b6000613ef084828501613afe565b91505092915050565b7f4e6f20726f7574657220656e726f6c6c656420666f7220646f6d61696e3a2000815250565b600081905092915050565b6000613f3582612c53565b613f3f8185613f1f565b9350613f4f81856020860161280d565b80840191505092915050565b6000613f6682613ef9565b601f82019150613f768284613f2a565b915081905092915050565b7f4e487b7100000000000000000000000000000000000000000000000000000000600052601260045260246000fd5b6000613fbb82612db2565b9150613fc683612db2565b9250828203905081811115613fde57613fdd613856565b5b92915050565b7f4e487b7100000000000000000000000000000000000000000000000000000000600052603160045260246000fdfea264697066735822122097443155faad08ea7f8fb8c7523813e606abdddc99c2a23066f29c2961fe89c664736f6c63430008180033",
  "linkReferences": {},
  "deployedLinkReferences": {}
}