{
  "_format": "hh-sol-artifact-1",
  "contractName": "MockMailbox",
  "sourceName": "contracts/test/MockMailbox.sol",
  "abi": [
    {
      "inputs": [],
      "stateMutability": "nonpayable",
      "type": "constructor"
    },
    {
      "anonymous": false,
      "inputs": [
        {
          "indexed": true,
          "internalType": "uint32",
          "name": "destinationDomain",
          "type": "uint32"
        },
        {
          "indexed": true,
          "internalType": "bytes32",
          "name": "recipient",
          "type": "bytes32"
        },
        {
          "indexed": false,
          "internalType": "bytes",
          "name": "message",
          "type": "bytes"
        }
      ],
      "name": "DispatchCalled",
      "type": "event"
    },
    {
      "inputs": [
        {
          "internalType": "bytes32",
          "name": "",
          "type": "bytes32"
        }
      ],
      "name": "delivered",
      "outputs": [
        {
          "internalType": "bool",
          "name": "",
          "type": "bool"
        }
      ],
      "stateMutability": "view",
      "type": "function"
    },
    {
      "inputs": [
        {
          "internalType": "uint32",
          "name": "destinationDomain",
          "type": "uint32"
        },
        {
          "internalType": "bytes32",
          "name": "recipientAddress",
          "type": "bytes32"
        },
        {
          "internalType": "bytes",
          "name": "messageBody",
          "type": "bytes"
        },
        {
          "internalType": "bytes",
          "name": "",
          "type": "bytes"
        },
        {
          "internalType": "address",
          "name": "",
          "type": "address"
        }
      ],
      "name": "dispatch",
      "outputs": [
        {
          "internalType": "bytes32",
          "name": "",
          "type": "bytes32"
        }
      ],
      "stateMutability": "payable",
      "type": "function"
    },
    {
      "inputs": [
        {
          "internalType": "uint32",
          "name": "_destinationDomain",
          "type": "uint32"
        },
        {
          "internalType": "bytes32",
          "name": "_recipientAddress",
          "type": "bytes32"
        },
        {
          "internalType": "bytes",
          "name": "_messageBody",
          "type": "bytes"
        }
      ],
      "name": "dispatch",
      "outputs": [
        {
          "internalType": "bytes32",
          "name": "",
          "type": "bytes32"
        }
      ],
      "stateMutability": "payable",
      "type": "function"
    },
    {
      "inputs": [],
      "name": "latestDispatchedId",
      "outputs": [
        {
          "internalType": "bytes32",
          "name": "",
          "type": "bytes32"
        }
      ],
      "stateMutability": "view",
      "type": "function"
    },
    {
      "inputs": [],
      "name": "localDomain",
      "outputs": [
        {
          "internalType": "uint32",
          "name": "",
          "type": "uint32"
        }
      ],
      "stateMutability": "view",
      "type": "function"
    },
    {
      "inputs": [
        {
          "internalType": "bytes32",
          "name": "",
          "type": "bytes32"
        }
      ],
      "name": "processor",
      "outputs": [
        {
          "internalType": "address",
          "name": "",
          "type": "address"
        }
      ],
      "stateMutability": "view",
      "type": "function"
    },
    {
      "inputs": [],
      "name": "processorAddress",
      "outputs": [
        {
          "internalType": "address",
          "name": "",
          "type": "address"
        }
      ],
      "stateMutability": "view",
      "type": "function"
    },
    {
      "inputs": [
        {
          "internalType": "address",
          "name": "_processor",
          "type": "address"
        }
      ],
      "name": "setProcessorAddress",
      "outputs": [],
      "stateMutability": "nonpayable",
      "type": "function"
    }
  ],
  "bytecode": "0x608060405261138b6000806101000a81548163ffffffff021916908363ffffffff16021790555034801561003257600080fd5b5061004d67392d825b2f5c7b0b60c01b6100ad60201b60201c565b610067677e1e3a3ab01c9ee260c01b6100ad60201b60201c565b30600360006101000a81548173ffffffffffffffffffffffffffffffffffffffff021916908373ffffffffffffffffffffffffffffffffffffffff1602179055506100b0565b50565b610be6806100bf6000396000f3fe60806040526004361061007b5760003560e01c8063b27daded1161004e578063b27daded14610143578063d772ddc01461016e578063e495f1d414610197578063fa31de01146101d45761007b565b806310b83dc014610080578063134fbb4f146100b05780635d1fe5a9146100db5780638d3638f414610118575b600080fd5b61009a60048036038101906100959190610752565b610204565b6040516100a7919061081d565b60405180910390f35b3480156100bc57600080fd5b506100c5610373565b6040516100d2919061081d565b60405180910390f35b3480156100e757600080fd5b5061010260048036038101906100fd9190610838565b610379565b60405161010f9190610874565b60405180910390f35b34801561012457600080fd5b5061012d6103e1565b60405161013a919061089e565b60405180910390f35b34801561014f57600080fd5b506101586103f5565b6040516101659190610874565b60405180910390f35b34801561017a57600080fd5b50610195600480360381019061019091906108b9565b61041b565b005b3480156101a357600080fd5b506101be60048036038101906101b99190610838565b610487565b6040516101cb9190610901565b60405180910390f35b6101ee60048036038101906101e9919061091c565b6104a7565b6040516101fb919061081d565b60405180910390f35b600061021a67d77b178130d49f2760c01b610610565b61022e6713f322fa37e0954360c01b610610565b61024267e7e325baf0f335b860c01b610610565b60008888888843600160405160200161026096959493929190610a94565b60405160208183030381529060405280519060200120905061028c67b058e74277fc183d60c01b610610565b806001819055506102a7670ce32d7120eae94160c01b610610565b60016002600083815260200190815260200160002060006101000a81548160ff0219169083151502179055506102e76701fa4a52e557d58760c01b610610565b6102fb6715f4084aa3555d3360c01b610610565b878963ffffffff167f638f9b91db00d22fd63cc3242293158882093a58cbd35bc0b30fca32d738c1638989604051610334929190610b40565b60405180910390a361035067184cbe50a6f0496060c01b610610565b610364679a669a1fa3e9074860c01b610610565b80915050979650505050505050565b60015481565b600061038f67cc0eb32123280d5960c01b610610565b6103a367eb7f8f0e861a993a60c01b610610565b6103b767230b91ab073b4c0a60c01b610610565b600360009054906101000a900473ffffffffffffffffffffffffffffffffffffffff169050919050565b60008054906101000a900463ffffffff1681565b600360009054906101000a900473ffffffffffffffffffffffffffffffffffffffff1681565b61042f67e9d6d72cc8ac76ba60c01b610610565b61044367da3dc143472521c960c01b610610565b80600360006101000a81548173ffffffffffffffffffffffffffffffffffffffff021916908373ffffffffffffffffffffffffffffffffffffffff16021790555050565b60026020528060005260406000206000915054906101000a900460ff1681565b60006104bd67612f6b29f9a00f4660c01b610610565b6104d167d3f101c8823f61ad60c01b610610565b6104e567ec017ec7a3dcc44160c01b610610565b60008585858543604051602001610500959493929190610b64565b60405160208183030381529060405280519060200120905061052c679b6687372c4c8c7260c01b610610565b80600181905550610547674464fe73eceafc1060c01b610610565b60016002600083815260200190815260200160002060006101000a81548160ff0219169083151502179055506105876761a67e3ebd0ed55260c01b610610565b61059b67429a40b7e59503e460c01b610610565b848663ffffffff167f638f9b91db00d22fd63cc3242293158882093a58cbd35bc0b30fca32d738c16386866040516105d4929190610b40565b60405180910390a36105f067febd4593b37c41cd60c01b610610565b61060467117620efced3d4b760c01b610610565b80915050949350505050565b50565b600080fd5b600080fd5b600063ffffffff82169050919050565b6106368161061d565b811461064157600080fd5b50565b6000813590506106538161062d565b92915050565b6000819050919050565b61066c81610659565b811461067757600080fd5b50565b60008135905061068981610663565b92915050565b600080fd5b600080fd5b600080fd5b60008083601f8401126106b4576106b361068f565b5b8235905067ffffffffffffffff8111156106d1576106d0610694565b5b6020830191508360018202830111156106ed576106ec610699565b5b9250929050565b600073ffffffffffffffffffffffffffffffffffffffff82169050919050565b600061071f826106f4565b9050919050565b61072f81610714565b811461073a57600080fd5b50565b60008135905061074c81610726565b92915050565b600080600080600080600060a0888a03121561077157610770610613565b5b600061077f8a828b01610644565b97505060206107908a828b0161067a565b965050604088013567ffffffffffffffff8111156107b1576107b0610618565b5b6107bd8a828b0161069e565b9550955050606088013567ffffffffffffffff8111156107e0576107df610618565b5b6107ec8a828b0161069e565b935093505060806107ff8a828b0161073d565b91505092959891949750929550565b61081781610659565b82525050565b6000602082019050610832600083018461080e565b92915050565b60006020828403121561084e5761084d610613565b5b600061085c8482850161067a565b91505092915050565b61086e81610714565b82525050565b60006020820190506108896000830184610865565b92915050565b6108988161061d565b82525050565b60006020820190506108b3600083018461088f565b92915050565b6000602082840312156108cf576108ce610613565b5b60006108dd8482850161073d565b91505092915050565b60008115159050919050565b6108fb816108e6565b82525050565b600060208201905061091660008301846108f2565b92915050565b6000806000806060858703121561093657610935610613565b5b600061094487828801610644565b94505060206109558782880161067a565b935050604085013567ffffffffffffffff81111561097657610975610618565b5b6109828782880161069e565b925092505092959194509250565b60008160e01b9050919050565b60006109a882610990565b9050919050565b6109c06109bb8261061d565b61099d565b82525050565b6000819050919050565b6109e16109dc82610659565b6109c6565b82525050565b600081905092915050565b82818337600083830152505050565b6000610a0d83856109e7565b9350610a1a8385846109f2565b82840190509392505050565b6000819050919050565b6000819050919050565b610a4b610a4682610a26565b610a30565b82525050565b600060ff82169050919050565b60008160f81b9050919050565b6000610a7682610a5e565b9050919050565b610a8e610a8982610a51565b610a6b565b82525050565b6000610aa082896109af565b600482019150610ab082886109d0565b602082019150610ac1828688610a01565b9150610acd8285610a3a565b602082019150610add8284610a7d565b600182019150819050979650505050505050565b600082825260208201905092915050565b6000601f19601f8301169050919050565b6000610b1f8385610af1565b9350610b2c8385846109f2565b610b3583610b02565b840190509392505050565b60006020820190508181036000830152610b5b818486610b13565b90509392505050565b6000610b7082886109af565b600482019150610b8082876109d0565b602082019150610b91828587610a01565b9150610b9d8284610a3a565b602082019150819050969550505050505056fea26469706673582212208911ed3c8dbefb2be66b6bd1d90ee433260d43e07faa6f59543a3e8f9c2a071e64736f6c63430008180033",
  "linkReferences": {},
  "deployedLinkReferences": {}
}