{
  "_format": "hh-sol-artifact-1",
  "contractName": "Versioned",
  "sourceName": "@hyperlane-xyz/core/contracts/upgrade/Versioned.sol",
  "abi": [
    {
      "inputs": [],
      "name": "VERSION",
      "outputs": [
        {
          "internalType": "uint8",
          "name": "",
          "type": "uint8"
        }
      ],
      "stateMutability": "view",
      "type": "function"
    }
  ],
  "bytecode": "0x608060405234801561001057600080fd5b5060b58061001f6000396000f3fe6080604052348015600f57600080fd5b506004361060285760003560e01c8063ffa1ad7414602d575b600080fd5b60336047565b604051603e91906066565b60405180910390f35b600381565b600060ff82169050919050565b606081604c565b82525050565b6000602082019050607960008301846059565b9291505056fea2646970667358221220549186c9aab34a8657a187a9b66aea3be0313c54b41d44f5755ae7840725893364736f6c63430008180033",
  "linkReferences": {},
  "deployedLinkReferences": {}
}