{
  "_format": "hh-sol-artifact-1",
  "contractName": "TrustedRelayerIsm",
  "sourceName": "contracts/TrustedRelayerIsm.sol",
  "abi": [
    {
      "inputs": [
        {
          "internalType": "address",
          "name": "_mailbox",
          "type": "address"
        },
        {
          "internalType": "address",
          "name": "_trustedRelayer",
          "type": "address"
        }
      ],
      "stateMutability": "nonpayable",
      "type": "constructor"
    },
    {
      "inputs": [],
      "name": "PACKAGE_VERSION",
      "outputs": [
        {
          "internalType": "string",
          "name": "",
          "type": "string"
        }
      ],
      "stateMutability": "view",
      "type": "function"
    },
    {
      "inputs": [],
      "name": "mailbox",
      "outputs": [
        {
          "internalType": "contract Mailbox",
          "name": "",
          "type": "address"
        }
      ],
      "stateMutability": "view",
      "type": "function"
    },
    {
      "inputs": [],
      "name": "moduleType",
      "outputs": [
        {
          "internalType": "uint8",
          "name": "",
          "type": "uint8"
        }
      ],
      "stateMutability": "view",
      "type": "function"
    },
    {
      "inputs": [],
      "name": "trustedRelayer",
      "outputs": [
        {
          "internalType": "address",
          "name": "",
          "type": "address"
        }
      ],
      "stateMutability": "view",
      "type": "function"
    },
    {
      "inputs": [
        {
          "internalType": "bytes",
          "name": "",
          "type": "bytes"
        },
        {
          "internalType": "bytes",
          "name": "message",
          "type": "bytes"
        }
      ],
      "name": "verify",
      "outputs": [
        {
          "internalType": "bool",
          "name": "",
          "type": "bool"
        }
      ],
      "stateMutability": "view",
      "type": "function"
    }
  ],
  "bytecode": "0x60e06040526006600c8111156200001b576200001a620002e9565b5b60ff1660809060ff168152503480156200003457600080fd5b5060405162000c2938038062000c2983398181016040528101906200005a919062000382565b620000766758b0c8107a8077c360c01b620002c360201b60201c565b6200009267cb647b553267d30660c01b620002c360201b60201c565b620000ae674e3d8da1cb5a9bbe60c01b620002c360201b60201c565b620000ca672e33b59d6c69627560c01b620002c360201b60201c565b600073ffffffffffffffffffffffffffffffffffffffff168173ffffffffffffffffffffffffffffffffffffffff16036200013c576040517f08c379a0000000000000000000000000000000000000000000000000000000008152600401620001339062000450565b60405180910390fd5b6200015867facb8fe6f5d1133a60c01b620002c360201b60201c565b62000174670d67e3f92837c9d060c01b620002c360201b60201c565b62000190674df2d3384265e32160c01b620002c360201b60201c565b620001ac67601b30b5676709d260c01b620002c360201b60201c565b620001bd82620002c660201b60201c565b620001ff576040517f08c379a0000000000000000000000000000000000000000000000000000000008152600401620001f690620004e8565b60405180910390fd5b6200021b6760a9c6ac5036b23560c01b620002c360201b60201c565b620002376783d4cf469c31975360c01b620002c360201b60201c565b8173ffffffffffffffffffffffffffffffffffffffff1660a08173ffffffffffffffffffffffffffffffffffffffff16815250506200028767d24f8612cf31d26c60c01b620002c360201b60201c565b8073ffffffffffffffffffffffffffffffffffffffff1660c08173ffffffffffffffffffffffffffffffffffffffff168152505050506200050a565b50565b6000808273ffffffffffffffffffffffffffffffffffffffff163b119050919050565b7f4e487b7100000000000000000000000000000000000000000000000000000000600052602160045260246000fd5b600080fd5b600073ffffffffffffffffffffffffffffffffffffffff82169050919050565b60006200034a826200031d565b9050919050565b6200035c816200033d565b81146200036857600080fd5b50565b6000815190506200037c8162000351565b92915050565b600080604083850312156200039c576200039b62000318565b5b6000620003ac858286016200036b565b9250506020620003bf858286016200036b565b9150509250929050565b600082825260208201905092915050565b7f5472757374656452656c6179657249736d3a20696e76616c69642072656c617960008201527f6572000000000000000000000000000000000000000000000000000000000000602082015250565b600062000438602283620003c9565b91506200044582620003da565b604082019050919050565b600060208201905081810360008301526200046b8162000429565b9050919050565b7f5472757374656452656c6179657249736d3a20696e76616c6964206d61696c6260008201527f6f78000000000000000000000000000000000000000000000000000000000000602082015250565b6000620004d0602283620003c9565b9150620004dd8262000472565b604082019050919050565b600060208201905081810360008301526200050381620004c1565b9050919050565b60805160a05160c0516106e1620005486000396000818161012a01526101e901526000818161018701526102200152600061010601526106e16000f3fe608060405234801561001057600080fd5b50600436106100575760003560e01c80636465e69f1461005c5780638596c2261461007a57806393c4484714610098578063d5438eae146100b6578063f7e83aee146100d4575b600080fd5b610064610104565b6040516100719190610355565b60405180910390f35b610082610128565b60405161008f91906103b1565b60405180910390f35b6100a061014c565b6040516100ad919061045c565b60405180910390f35b6100be610185565b6040516100cb91906104dd565b60405180910390f35b6100ee60048036038101906100e99190610567565b6101a9565b6040516100fb9190610603565b60405180910390f35b7f000000000000000000000000000000000000000000000000000000000000000081565b7f000000000000000000000000000000000000000000000000000000000000000081565b6040518060400160405280600681526020017f31302e312e33000000000000000000000000000000000000000000000000000081525081565b7f000000000000000000000000000000000000000000000000000000000000000081565b60006101bf6743dd692e80e264b660c01b610325565b6101d367bbe186042750df1b60c01b610325565b6101e767a9391b3797eeb21560c01b610325565b7f000000000000000000000000000000000000000000000000000000000000000073ffffffffffffffffffffffffffffffffffffffff167f000000000000000000000000000000000000000000000000000000000000000073ffffffffffffffffffffffffffffffffffffffff16635d1fe5a96102a786868080601f016020809104026020016040519081016040528093929190818152602001838380828437600081840152601f19601f82011690508083019250505050505050610328565b6040518263ffffffff1660e01b81526004016102c39190610637565b602060405180830381865afa1580156102e0573d6000803e3d6000fd5b505050506040513d601f19601f82011682018060405250810190610304919061067e565b73ffffffffffffffffffffffffffffffffffffffff16149050949350505050565b50565b600081805190602001209050919050565b600060ff82169050919050565b61034f81610339565b82525050565b600060208201905061036a6000830184610346565b92915050565b600073ffffffffffffffffffffffffffffffffffffffff82169050919050565b600061039b82610370565b9050919050565b6103ab81610390565b82525050565b60006020820190506103c660008301846103a2565b92915050565b600081519050919050565b600082825260208201905092915050565b60005b838110156104065780820151818401526020810190506103eb565b60008484015250505050565b6000601f19601f8301169050919050565b600061042e826103cc565b61043881856103d7565b93506104488185602086016103e8565b61045181610412565b840191505092915050565b600060208201905081810360008301526104768184610423565b905092915050565b6000819050919050565b60006104a361049e61049984610370565b61047e565b610370565b9050919050565b60006104b582610488565b9050919050565b60006104c7826104aa565b9050919050565b6104d7816104bc565b82525050565b60006020820190506104f260008301846104ce565b92915050565b600080fd5b600080fd5b600080fd5b600080fd5b600080fd5b60008083601f84011261052757610526610502565b5b8235905067ffffffffffffffff81111561054457610543610507565b5b6020830191508360018202830111156105605761055f61050c565b5b9250929050565b60008060008060408587031215610581576105806104f8565b5b600085013567ffffffffffffffff81111561059f5761059e6104fd565b5b6105ab87828801610511565b9450945050602085013567ffffffffffffffff8111156105ce576105cd6104fd565b5b6105da87828801610511565b925092505092959194509250565b60008115159050919050565b6105fd816105e8565b82525050565b600060208201905061061860008301846105f4565b92915050565b6000819050919050565b6106318161061e565b82525050565b600060208201905061064c6000830184610628565b92915050565b61065b81610390565b811461066657600080fd5b50565b60008151905061067881610652565b92915050565b600060208284031215610694576106936104f8565b5b60006106a284828501610669565b9150509291505056fea26469706673582212209b23ad3859a156f9c3918af1f1d3fe0f7872f7982337ad407922c274e662abb464736f6c63430008180033",
  "linkReferences": {},
  "deployedLinkReferences": {}
}