{
  "_format": "hh-sol-artifact-1",
  "contractName": "Indexed",
  "sourceName": "@hyperlane-xyz/core/contracts/libs/Indexed.sol",
  "abi": [
    {
      "inputs": [],
      "stateMutability": "nonpayable",
      "type": "constructor"
    },
    {
      "inputs": [],
      "name": "deployedBlock",
      "outputs": [
        {
          "internalType": "uint256",
          "name": "",
          "type": "uint256"
        }
      ],
      "stateMutability": "view",
      "type": "function"
    }
  ],
  "bytecode": "0x60a060405234801561001057600080fd5b50436080818152505060805160d161003160003960006049015260d16000f3fe6080604052348015600f57600080fd5b506004361060285760003560e01c806382ea7bfe14602d575b600080fd5b60336047565b604051603e91906082565b60405180910390f35b7f000000000000000000000000000000000000000000000000000000000000000081565b6000819050919050565b607c81606b565b82525050565b6000602082019050609560008301846075565b9291505056fea26469706673582212208c641e4a33cd5d7712603a1984f5858e60d688c7788a5207555669537140e71d64736f6c63430008180033",
  "linkReferences": {},
  "deployedLinkReferences": {}
}